Component: ARM Compiler 5.06 update 6 (build 750) Tool: armlink [4d35ed]

==============================================================================

Section Cross References

    main.o(i.main) refers to rtx_kernel.o(i.osKernelInitialize) for osKernelInitialize
    main.o(i.main) refers to acq_cycle.o(i.ThreadCreate_acq_cycle) for ThreadCreate_acq_cycle
    main.o(i.main) refers to dispatcher_cycle.o(i.ThreadCreate_dispatcher_cycle) for ThreadCreate_dispatcher_cycle
    main.o(i.main) refers to histories.o(i.ThreadCreate_histories) for ThreadCreate_histories
    main.o(i.main) refers to modbus_gateway.o(i.ThreadCreate_modbus_gateway) for ThreadCreate_modbus_gateway
    main.o(i.main) refers to modbus_socket.o(i.ThreadCreate_modbus_socket) for ThreadCreate_modbus_socket
    main.o(i.main) refers to modbus_usb.o(i.ThreadCreate_modbus_USB) for ThreadCreate_modbus_USB
    main.o(i.main) refers to rtx_kernel.o(i.osKernelStart) for osKernelStart
    acq_cycle.o(i.ThreadCreate_acq_cycle) refers to cmsis_os1.o(i.osThreadCreate) for osThreadCreate
    acq_cycle.o(i.ThreadCreate_acq_cycle) refers to rtx_thread.o(i.osThreadTerminate) for osThreadTerminate
    acq_cycle.o(i.ThreadCreate_acq_cycle) refers to acq_cycle.o(.constdata) for os_thread_def_Thread_acq_cycle
    acq_cycle.o(i.Thread_acq_cycle) refers to _printf_percent.o(.ARM.Collect$$_printf_percent$$00000000) for _printf_percent
    acq_cycle.o(i.Thread_acq_cycle) refers to _printf_s.o(.ARM.Collect$$_printf_percent$$00000014) for _printf_s
    acq_cycle.o(i.Thread_acq_cycle) refers to _printf_str.o(.text) for _printf_str
    acq_cycle.o(i.Thread_acq_cycle) refers to noretval__2sprintf.o(.text) for __2sprintf
    acq_cycle.o(i.Thread_acq_cycle) refers to acq_cycle.o(.bss) for array_acq
    acq_cycle.o(.constdata) refers to acq_cycle.o(i.Thread_acq_cycle) for Thread_acq_cycle
    acq_cycle.o(.constdata) refers to acq_cycle.o(.bss.os.thread.cb) for os_thread_cb_Thread_acq_cycle
==============================================================================

Removing Unused input sections from the image.

    Removing acq_cycle.o(.bss.os.thread.stack), (8 bytes).
    Removing dispatcher_cycle.o(.bss.os.thread.stack), (8 bytes).
    Removing histories.o(.bss.os.thread.stack), (8 bytes).
    Removing modbus_gateway.o(.bss.os.thread.stack), (8 bytes).
    Removing modbus_socket.o(.bss.os.thread.stack), (8 bytes).
    Removing modbus_usb.o(.bss.os.thread.stack), (8 bytes).
    Removing rtx_config.o(.rev16_text), (4 bytes).
    Removing rtx_config.o(.revsh_text), (4 bytes).
    Removing rtx_config.o(.rrx_text), (6 bytes).
    Removing cmsis_os1.o(i.osMailAlloc), (24 bytes).
    Removing cmsis_os1.o(i.osMailCAlloc), (56 bytes).
    Removing cmsis_os1.o(i.osMailCreate), (84 bytes).
    Removing cmsis_os1.o(i.osMailFree), (34 bytes).
    Removing cmsis_os1.o(i.osMailGet), (90 bytes).
    Removing cmsis_os1.o(i.osMailPut), (38 bytes).
    Removing cmsis_os1.o(i.osMessageCreate), (24 bytes).
    Removing cmsis_os1.o(i.osMessageGet), (70 bytes).
    Removing cmsis_os1.o(i.osMessagePut), (20 bytes).
==============================================================================

Image Symbol Table

    Local Symbols

    Symbol Name                              Value     Ov Type        Size  Object(Section)

    ../clib/angel/boardlib.s                 0x00000000   Number         0  boardinit3.o ABSOLUTE
    ../clib/angel/boardlib.s                 0x00000000   Number         0  boardshut.o ABSOLUTE
    ../clib/angel/boardlib.s                 0x00000000   Number         0  boardinit1.o ABSOLUTE
    ../clib/angel/dczerorl2.s                0x00000000   Number         0  __dczerorl2.o ABSOLUTE
    ../clib/angel/handlers.s                 0x00000000   Number         0  __scatter_zi.o ABSOLUTE
    ../clib/angel/kernel.s                   0x00000000   Number         0  __rtentry.o ABSOLUTE
    ../clib/angel/kernel.s                   0x00000000   Number         0  __rtentry2.o ABSOLUTE
    ../clib/angel/kernel.s                   0x00000000   Number         0  __rtentry4.o ABSOLUTE
    ../clib/angel/kernel.s                   0x00000000   Number         0  rtexit.o ABSOLUTE
    ../clib/angel/kernel.s                   0x00000000   Number         0  rtexit2.o ABSOLUTE
    ../clib/angel/rt.s                       0x00000000   Number         0  aeabi_ldiv0_sigfpe.o ABSOLUTE
    ../clib/angel/rt.s                       0x00000000   Number         0  aeabi_ldiv0.o ABSOLUTE
    ../clib/angel/rt.s                       0x00000000   Number         0  rt_raise.o ABSOLUTE
    ../clib/angel/rt.s                       0x00000000   Number         0  rt_div0.o ABSOLUTE
    ../clib/angel/scatter.s                  0x00000000   Number         0  __scatter.o ABSOLUTE
    ../clib/angel/startup.s                  0x00000000   Number         0  __main.o ABSOLUTE
    ../clib/angel/sys.s                      0x00000000   Number         0  sys_stackheap_outer.o ABSOLUTE
    ../clib/angel/sys.s                      0x00000000   Number         0  libspace.o ABSOLUTE
    ../clib/angel/sys.s                      0x00000000   Number         0  indicate_semi.o ABSOLUTE
    ../clib/angel/sys.s                      0x00000000   Number         0  use_no_semi.o ABSOLUTE
    ../clib/angel/sysapp.c                   0x00000000   Number         0  sys_command.o ABSOLUTE
    ../clib/angel/sysapp.c                   0x00000000   Number         0  sys_exit.o ABSOLUTE
    ../clib/angel/sysapp.c                   0x00000000   Number         0  sys_wrch.o ABSOLUTE
    ../clib/armsys.c                         0x00000000   Number         0  no_argv.o ABSOLUTE
    ../clib/armsys.c                         0x00000000   Number         0  _get_argv_nomalloc.o ABSOLUTE
    ../clib/armsys.c                         0x00000000   Number         0  argv_veneer.o ABSOLUTE
    ../clib/armsys.c                         0x00000000   Number         0  argv_veneer.o ABSOLUTE
    ../clib/heapalloc.c                      0x00000000   Number         0  hrguard.o ABSOLUTE
    ../clib/heapaux.c                        0x00000000   Number         0  heapauxi.o ABSOLUTE
    ../clib/libinit.s                        0x00000000   Number         0  libshutdown.o ABSOLUTE
    ../clib/libinit.s                        0x00000000   Number         0  libinit2.o ABSOLUTE
    ../clib/libinit.s                        0x00000000   Number         0  libinit.o ABSOLUTE
    ../clib/libinit.s                        0x00000000   Number         0  libshutdown2.o ABSOLUTE
    ../clib/longlong.s                       0x00000000   Number         0  lludivv7m.o ABSOLUTE
    ../clib/memcpset.s                       0x00000000   Number         0  rt_memcpy_w.o ABSOLUTE
    ../clib/memcpset.s                       0x00000000   Number         0  rt_memclr_w.o ABSOLUTE
    ../clib/memcpset.s                       0x00000000   Number         0  rt_memclr.o ABSOLUTE
    ../clib/memcpset.s                       0x00000000   Number         0  rt_memcpy_v6.o ABSOLUTE
    ../clib/printf.c                         0x00000000   Number         0  _printf_str.o ABSOLUTE
    ../clib/printf.c                         0x00000000   Number         0  __printf.o ABSOLUTE
    ../clib/printf.c                         0x00000000   Number         0  _sputc.o ABSOLUTE
    ../clib/printf.c                         0x00000000   Number         0  noretval__2sprintf.o ABSOLUTE
    ../clib/printf.c                         0x00000000   Number         0  __2sprintf.o ABSOLUTE
    ../clib/printf.c                         0x00000000   Number         0  _printf_char.o ABSOLUTE
    ../clib/printf.c                         0x00000000   Number         0  __printf_flags_ss.o ABSOLUTE
    ../clib/printf.c                         0x00000000   Number         0  _printf_char_common.o ABSOLUTE
    ../clib/printf.c                         0x00000000   Number         0  __printf_nopercent.o ABSOLUTE
    ../clib/printf.c                         0x00000000   Number         0  __printf_ss.o ABSOLUTE
    ../clib/printf.c                         0x00000000   Number         0  __printf_flags.o ABSOLUTE
    ../clib/printf.c                         0x00000000   Number         0  __printf_flags_ss_wp.o ABSOLUTE
    ../clib/printf.c                         0x00000000   Number         0  __printf_ss_wp.o ABSOLUTE
    ../clib/printf.c                         0x00000000   Number         0  __printf_flags_wp.o ABSOLUTE
    ../clib/printf.c                         0x00000000   Number         0  __printf_wp.o ABSOLUTE
    ../clib/printf_percent.s                 0x00000000   Number         0  _printf_percent_end.o ABSOLUTE
    ../clib/printf_percent.s                 0x00000000   Number         0  _printf_percent.o ABSOLUTE
    ../clib/printf_percent.s                 0x00000000   Number         0  _printf_s.o ABSOLUTE
    ../clib/signal.c                         0x00000000   Number         0  defsig_fpe_inner.o ABSOLUTE
    ../clib/signal.c                         0x00000000   Number         0  defsig_exit.o ABSOLUTE
    ../clib/signal.c                         0x00000000   Number         0  defsig_stak_inner.o ABSOLUTE
    ../clib/signal.c                         0x00000000   Number         0  defsig_general.o ABSOLUTE
    ../clib/signal.c                         0x00000000   Number         0  defsig_fpe_formal.o ABSOLUTE
    ../clib/signal.c                         0x00000000   Number         0  defsig_pvfn_inner.o ABSOLUTE
    ../clib/signal.c                         0x00000000   Number         0  defsig_other.o ABSOLUTE
    ../clib/signal.c                         0x00000000   Number         0  defsig_segv_inner.o ABSOLUTE
    ../clib/signal.c                         0x00000000   Number         0  defsig_cppl_inner.o ABSOLUTE
    ../clib/signal.c                         0x00000000   Number         0  defsig_rtmem_inner.o ABSOLUTE
    ../clib/signal.c                         0x00000000   Number         0  defsig_rtred_inner.o ABSOLUTE
    ../clib/signal.c                         0x00000000   Number         0  defsig_abrt_inner.o ABSOLUTE
    ../clib/signal.c                         0x00000000   Number         0  defsig_rtmem_formal.o ABSOLUTE
    ../clib/signal.c                         0x00000000   Number         0  defsig_rtmem_outer.o ABSOLUTE
    ../clib/signal.c                         0x00000000   Number         0  defsig_fpe_outer.o ABSOLUTE
    ../clib/signal.c                         0x00000000   Number         0  __raise.o ABSOLUTE
    ../clib/signal.s                         0x00000000   Number         0  defsig.o ABSOLUTE
    ../clib/stdlib.c                         0x00000000   Number         0  exit.o ABSOLUTE
    ../fplib/fpinit.s                        0x00000000   Number         0  fpinit.o ABSOLUTE
    C:\Users\amaciuc\AppData\Local\Arm\Packs\ARM\CMSIS\5.6.0\CMSIS\RTOS2\RTX\Library\cmsis_os1.c 0x00000000   Number         0  cmsis_os1.o ABSOLUTE
    C:\Users\amaciuc\AppData\Local\Arm\Packs\ARM\CMSIS\5.6.0\CMSIS\RTOS2\RTX\Source\ARM\irq_cm4f.s 0x00000000   Number         0  irq_cm4f.o ABSOLUTE
    C:\Users\amaciuc\AppData\Local\Arm\Packs\ARM\CMSIS\5.6.0\CMSIS\RTOS2\RTX\Source\rtx_delay.c 0x00000000   Number         0  rtx_delay.o ABSOLUTE
    C:\Users\amaciuc\AppData\Local\Arm\Packs\ARM\CMSIS\5.6.0\CMSIS\RTOS2\RTX\Source\rtx_evflags.c 0x00000000   Number         0  rtx_evflags.o ABSOLUTE
    C:\Users\amaciuc\AppData\Local\Arm\Packs\ARM\CMSIS\5.6.0\CMSIS\RTOS2\RTX\Source\rtx_evr.c 0x00000000   Number         0  rtx_evr.o ABSOLUTE
    C:\Users\amaciuc\AppData\Local\Arm\Packs\ARM\CMSIS\5.6.0\CMSIS\RTOS2\RTX\Source\rtx_kernel.c 0x00000000   Number         0  rtx_kernel.o ABSOLUTE
    C:\Users\amaciuc\AppData\Local\Arm\Packs\ARM\CMSIS\5.6.0\CMSIS\RTOS2\RTX\Source\rtx_lib.c 0x00000000   Number         0  rtx_lib.o ABSOLUTE
    C:\Users\amaciuc\AppData\Local\Arm\Packs\ARM\CMSIS\5.6.0\CMSIS\RTOS2\RTX\Source\rtx_memory.c 0x00000000   Number         0  rtx_memory.o ABSOLUTE
    C:\Users\amaciuc\AppData\Local\Arm\Packs\ARM\CMSIS\5.6.0\CMSIS\RTOS2\RTX\Source\rtx_mempool.c 0x00000000   Number         0  rtx_mempool.o ABSOLUTE
    C:\Users\amaciuc\AppData\Local\Arm\Packs\ARM\CMSIS\5.6.0\CMSIS\RTOS2\RTX\Source\rtx_msgqueue.c 0x00000000   Number         0  rtx_msgqueue.o ABSOLUTE
    C:\Users\amaciuc\AppData\Local\Arm\Packs\ARM\CMSIS\5.6.0\CMSIS\RTOS2\RTX\Source\rtx_mutex.c 0x00000000   Number         0  rtx_mutex.o ABSOLUTE
    C:\Users\amaciuc\AppData\Local\Arm\Packs\ARM\CMSIS\5.6.0\CMSIS\RTOS2\RTX\Source\rtx_semaphore.c 0x00000000   Number         0  rtx_semaphore.o ABSOLUTE
    C:\Users\amaciuc\AppData\Local\Arm\Packs\ARM\CMSIS\5.6.0\CMSIS\RTOS2\RTX\Source\rtx_system.c 0x00000000   Number         0  rtx_system.o ABSOLUTE
    C:\Users\amaciuc\AppData\Local\Arm\Packs\ARM\CMSIS\5.6.0\CMSIS\RTOS2\RTX\Source\rtx_thread.c 0x00000000   Number         0  rtx_thread.o ABSOLUTE
    C:\Users\amaciuc\AppData\Local\Arm\Packs\ARM\CMSIS\5.6.0\CMSIS\RTOS2\RTX\Source\rtx_timer.c 0x00000000   Number         0  rtx_timer.o ABSOLUTE
    C:\Users\amaciuc\AppData\Local\Arm\Packs\ARM\CMSIS\5.6.0\CMSIS\RTOS2\Source\os_systick.c 0x00000000   Number         0  os_systick.o ABSOLUTE
    C:\Users\amaciuc\AppData\Local\Arm\Packs\Keil\STM32F4xx_DFP\2.14.0\CMSIS\Driver\USART_STM32F4xx.c 0x00000000   Number         0  usart_stm32f4xx.o ABSOLUTE
    C:\Users\amaciuc\AppData\Local\Arm\Packs\Keil\STM32F4xx_DFP\2.14.0\Drivers\STM32F4xx_HAL_Driver\Src\stm32f4xx_hal.c 0x00000000   Number         0  stm32f4xx_hal.o ABSOLUTE
    C:\Users\amaciuc\AppData\Local\Arm\Packs\Keil\STM32F4xx_DFP\2.14.0\Drivers\STM32F4xx_HAL_Driver\Src\stm32f4xx_hal_cortex.c 0x00000000   Number         0  stm32f4xx_hal_cortex.o ABSOLUTE
    C:\Users\amaciuc\AppData\Local\Arm\Packs\Keil\STM32F4xx_DFP\2.14.0\Drivers\STM32F4xx_HAL_Driver\Src\stm32f4xx_hal_dma.c 0x00000000   Number         0  stm32f4xx_hal_dma.o ABSOLUTE
    C:\Users\amaciuc\AppData\Local\Arm\Packs\Keil\STM32F4xx_DFP\2.14.0\Drivers\STM32F4xx_HAL_Driver\Src\stm32f4xx_hal_dma_ex.c 0x00000000   Number         0  stm32f4xx_hal_dma_ex.o ABSOLUTE
    C:\Users\amaciuc\AppData\Local\Arm\Packs\Keil\STM32F4xx_DFP\2.14.0\Drivers\STM32F4xx_HAL_Driver\Src\stm32f4xx_hal_gpio.c 0x00000000   Number         0  stm32f4xx_hal_gpio.o ABSOLUTE
    C:\Users\amaciuc\AppData\Local\Arm\Packs\Keil\STM32F4xx_DFP\2.14.0\Drivers\STM32F4xx_HAL_Driver\Src\stm32f4xx_hal_pwr.c 0x00000000   Number         0  stm32f4xx_hal_pwr.o ABSOLUTE
    C:\Users\amaciuc\AppData\Local\Arm\Packs\Keil\STM32F4xx_DFP\2.14.0\Drivers\STM32F4xx_HAL_Driver\Src\stm32f4xx_hal_pwr_ex.c 0x00000000   Number         0  stm32f4xx_hal_pwr_ex.o ABSOLUTE
    C:\Users\amaciuc\AppData\Local\Arm\Packs\Keil\STM32F4xx_DFP\2.14.0\Drivers\STM32F4xx_HAL_Driver\Src\stm32f4xx_hal_rcc.c 0x00000000   Number         0  stm32f4xx_hal_rcc.o ABSOLUTE
    C:\Users\amaciuc\AppData\Local\Arm\Packs\Keil\STM32F4xx_DFP\2.14.0\Drivers\STM32F4xx_HAL_Driver\Src\stm32f4xx_hal_rcc_ex.c 0x00000000   Number         0  stm32f4xx_hal_rcc_ex.o ABSOLUTE
    C:\Users\amaciuc\AppData\Local\Arm\Packs\Keil\STM32F4xx_DFP\2.14.0\Drivers\STM32F4xx_HAL_Driver\Src\stm32f4xx_hal_usart.c 0x00000000   Number         0  stm32f4xx_hal_usart.o ABSOLUTE
    C:\\Users\\amaciuc\\AppData\\Local\\Arm\\Packs\\ARM\\CMSIS\\5.6.0\\CMSIS\\RTOS2\\RTX\\Source\\rtx_delay.c 0x00000000   Number         0  rtx_delay.o ABSOLUTE
    C:\\Users\\amaciuc\\AppData\\Local\\Arm\\Packs\\ARM\\CMSIS\\5.6.0\\CMSIS\\RTOS2\\RTX\\Source\\rtx_evflags.c 0x00000000   Number         0  rtx_evflags.o ABSOLUTE
    C:\\Users\\amaciuc\\AppData\\Local\\Arm\\Packs\\ARM\\CMSIS\\5.6.0\\CMSIS\\RTOS2\\RTX\\Source\\rtx_evr.c 0x00000000   Number         0  rtx_evr.o ABSOLUTE
    C:\\Users\\amaciuc\\AppData\\Local\\Arm\\Packs\\ARM\\CMSIS\\5.6.0\\CMSIS\\RTOS2\\RTX\\Source\\rtx_kernel.c 0x00000000   Number         0  rtx_kernel.o ABSOLUTE
    C:\\Users\\amaciuc\\AppData\\Local\\Arm\\Packs\\ARM\\CMSIS\\5.6.0\\CMSIS\\RTOS2\\RTX\\Source\\rtx_lib.c 0x00000000   Number         0  rtx_lib.o ABSOLUTE
    C:\\Users\\amaciuc\\AppData\\Local\\Arm\\Packs\\ARM\\CMSIS\\5.6.0\\CMSIS\\RTOS2\\RTX\\Source\\rtx_memory.c 0x00000000   Number         0  rtx_memory.o ABSOLUTE
    C:\\Users\\amaciuc\\AppData\\Local\\Arm\\Packs\\ARM\\CMSIS\\5.6.0\\CMSIS\\RTOS2\\RTX\\Source\\rtx_mempool.c 0x00000000   Number         0  rtx_mempool.o ABSOLUTE
    C:\\Users\\amaciuc\\AppData\\Local\\Arm\\Packs\\ARM\\CMSIS\\5.6.0\\CMSIS\\RTOS2\\RTX\\Source\\rtx_msgqueue.c 0x00000000   Number         0  rtx_msgqueue.o ABSOLUTE
    C:\\Users\\amaciuc\\AppData\\Local\\Arm\\Packs\\ARM\\CMSIS\\5.6.0\\CMSIS\\RTOS2\\RTX\\Source\\rtx_mutex.c 0x00000000   Number         0  rtx_mutex.o ABSOLUTE
    C:\\Users\\amaciuc\\AppData\\Local\\Arm\\Packs\\ARM\\CMSIS\\5.6.0\\CMSIS\\RTOS2\\RTX\\Source\\rtx_semaphore.c 0x00000000   Number         0  rtx_semaphore.o ABSOLUTE
    C:\\Users\\amaciuc\\AppData\\Local\\Arm\\Packs\\ARM\\CMSIS\\5.6.0\\CMSIS\\RTOS2\\RTX\\Source\\rtx_system.c 0x00000000   Number         0  rtx_system.o ABSOLUTE
    C:\\Users\\amaciuc\\AppData\\Local\\Arm\\Packs\\ARM\\CMSIS\\5.6.0\\CMSIS\\RTOS2\\RTX\\Source\\rtx_thread.c 0x00000000   Number         0  rtx_thread.o ABSOLUTE
    C:\\Users\\amaciuc\\AppData\\Local\\Arm\\Packs\\ARM\\CMSIS\\5.6.0\\CMSIS\\RTOS2\\RTX\\Source\\rtx_timer.c 0x00000000   Number         0  rtx_timer.o ABSOLUTE
    C:\\Users\\amaciuc\\AppData\\Local\\Arm\\Packs\\ARM\\CMSIS\\5.6.0\\CMSIS\\RTOS2\\Source\\os_systick.c 0x00000000   Number         0  os_systick.o ABSOLUTE
    C:\\Users\\amaciuc\\AppData\\Local\\Arm\\Packs\\Keil\\STM32F4xx_DFP\\2.14.0\\CMSIS\\Driver\\USART_STM32F4xx.c 0x00000000   Number         0  usart_stm32f4xx.o ABSOLUTE
    C:\\Users\\amaciuc\\AppData\\Local\\Arm\\Packs\\Keil\\STM32F4xx_DFP\\2.14.0\\Drivers\\STM32F4xx_HAL_Driver\\Src\\stm32f4xx_hal.c 0x00000000   Number         0  stm32f4xx_hal.o ABSOLUTE
    C:\\Users\\amaciuc\\AppData\\Local\\Arm\\Packs\\Keil\\STM32F4xx_DFP\\2.14.0\\Drivers\\STM32F4xx_HAL_Driver\\Src\\stm32f4xx_hal_cortex.c 0x00000000   Number         0  stm32f4xx_hal_cortex.o ABSOLUTE
    C:\\Users\\amaciuc\\AppData\\Local\\Arm\\Packs\\Keil\\STM32F4xx_DFP\\2.14.0\\Drivers\\STM32F4xx_HAL_Driver\\Src\\stm32f4xx_hal_dma.c 0x00000000   Number         0  stm32f4xx_hal_dma.o ABSOLUTE
    C:\\Users\\amaciuc\\AppData\\Local\\Arm\\Packs\\Keil\\STM32F4xx_DFP\\2.14.0\\Drivers\\STM32F4xx_HAL_Driver\\Src\\stm32f4xx_hal_dma_ex.c 0x00000000   Number         0  stm32f4xx_hal_dma_ex.o ABSOLUTE
    C:\\Users\\amaciuc\\AppData\\Local\\Arm\\Packs\\Keil\\STM32F4xx_DFP\\2.14.0\\Drivers\\STM32F4xx_HAL_Driver\\Src\\stm32f4xx_hal_gpio.c 0x00000000   Number         0  stm32f4xx_hal_gpio.o ABSOLUTE
    C:\\Users\\amaciuc\\AppData\\Local\\Arm\\Packs\\Keil\\STM32F4xx_DFP\\2.14.0\\Drivers\\STM32F4xx_HAL_Driver\\Src\\stm32f4xx_hal_pwr.c 0x00000000   Number         0  stm32f4xx_hal_pwr.o ABSOLUTE
    C:\\Users\\amaciuc\\AppData\\Local\\Arm\\Packs\\Keil\\STM32F4xx_DFP\\2.14.0\\Drivers\\STM32F4xx_HAL_Driver\\Src\\stm32f4xx_hal_pwr_ex.c 0x00000000   Number         0  stm32f4xx_hal_pwr_ex.o ABSOLUTE
    C:\\Users\\amaciuc\\AppData\\Local\\Arm\\Packs\\Keil\\STM32F4xx_DFP\\2.14.0\\Drivers\\STM32F4xx_HAL_Driver\\Src\\stm32f4xx_hal_rcc.c 0x00000000   Number         0  stm32f4xx_hal_rcc.o ABSOLUTE
    C:\\Users\\amaciuc\\AppData\\Local\\Arm\\Packs\\Keil\\STM32F4xx_DFP\\2.14.0\\Drivers\\STM32F4xx_HAL_Driver\\Src\\stm32f4xx_hal_rcc_ex.c 0x00000000   Number         0  stm32f4xx_hal_rcc_ex.o ABSOLUTE
    C:\\Users\\amaciuc\\AppData\\Local\\Arm\\Packs\\Keil\\STM32F4xx_DFP\\2.14.0\\Drivers\\STM32F4xx_HAL_Driver\\Src\\stm32f4xx_hal_usart.c 0x00000000   Number         0  stm32f4xx_hal_usart.o ABSOLUTE
    RTE\CMSIS\RTX_Config.c                   0x00000000   Number         0  rtx_config.o ABSOLUTE
    RTE\Device\STM32F407IGHx\startup_stm32f407xx.s 0x00000000   Number         0  startup_stm32f407xx.o ABSOLUTE
    RTE\Device\STM32F407IGHx\system_stm32f4xx.c 0x00000000   Number         0  system_stm32f4xx.o ABSOLUTE
    RTE\\CMSIS\\RTX_Config.c                 0x00000000   Number         0  rtx_config.o ABSOLUTE
    RTE\\Device\\STM32F407IGHx\\system_stm32f4xx.c 0x00000000   Number         0  system_stm32f4xx.o ABSOLUTE
    dc.s                                     0x00000000   Number         0  dc.o ABSOLUTE
    mainMBE\Modbus_USB.c                     0x00000000   Number         0  modbus_usb.o ABSOLUTE
    mainMBE\Modbus_gateway.c                 0x00000000   Number         0  modbus_gateway.o ABSOLUTE
    mainMBE\Modbus_socket.c                  0x00000000   Number         0  modbus_socket.o ABSOLUTE
    mainMBE\acq_cycle.c                      0x00000000   Number         0  acq_cycle.o ABSOLUTE
    mainMBE\dispatcher_cycle.c               0x00000000   Number         0  dispatcher_cycle.o ABSOLUTE
    mainMBE\histories.c                      0x00000000   Number         0  histories.o ABSOLUTE
    mainMBE\main.c                           0x00000000   Number         0  main.o ABSOLUTE
    RESET                                    0x08000000   Section      392  startup_stm32f407xx.o(RESET)
    !!!main                                  0x08000188   Section        8  __main.o(!!!main)
    !!!scatter                               0x08000190   Section       52  __scatter.o(!!!scatter)
    !!dczerorl2                              0x080001c4   Section       90  __dczerorl2.o(!!dczerorl2)
    !!handler_zi                             0x08000220   Section       28  __scatter_zi.o(!!handler_zi)
    .ARM.Collect$$_printf_percent$$00000000  0x0800023c   Section        0  _printf_percent.o(.ARM.Collect$$_printf_percent$$00000000)
    .ARM.Collect$$_printf_percent$$00000014  0x0800023c   Section        6  _printf_s.o(.ARM.Collect$$_printf_percent$$00000014)
    .ARM.Collect$$_printf_percent$$00000017  0x08000242   Section        4  _printf_percent_end.o(.ARM.Collect$$_printf_percent$$00000017)
    .ARM.Collect$$libinit$$00000000          0x08000246   Section        2  libinit.o(.ARM.Collect$$libinit$$00000000)
    .ARM.Collect$$libinit$$00000001          0x08000248   Section        4  libinit2.o(.ARM.Collect$$libinit$$00000001)
    .ARM.Collect$$libinit$$00000004          0x0800024c   Section        0  libinit2.o(.ARM.Collect$$libinit$$00000004)
    .ARM.Collect$$libinit$$0000000A          0x0800024c   Section        0  libinit2.o(.ARM.Collect$$libinit$$0000000A)
    .ARM.Collect$$libinit$$0000000C          0x0800024c   Section        0  libinit2.o(.ARM.Collect$$libinit$$0000000C)
    .ARM.Collect$$libinit$$0000000E          0x0800024c   Section        0  libinit2.o(.ARM.Collect$$libinit$$0000000E)
    .ARM.Collect$$libinit$$00000011          0x0800024c   Section        0  libinit2.o(.ARM.Collect$$libinit$$00000011)
    .ARM.Collect$$libinit$$00000013          0x0800024c   Section        0  libinit2.o(.ARM.Collect$$libinit$$00000013)
    .ARM.Collect$$libinit$$00000015          0x0800024c   Section        0  libinit2.o(.ARM.Collect$$libinit$$00000015)
    .ARM.Collect$$libinit$$00000017          0x0800024c   Section        0  libinit2.o(.ARM.Collect$$libinit$$00000017)
    .ARM.Collect$$libinit$$00000019          0x0800024c   Section        0  libinit2.o(.ARM.Collect$$libinit$$00000019)
    .ARM.Collect$$libinit$$0000001B          0x0800024c   Section        0  libinit2.o(.ARM.Collect$$libinit$$0000001B)
    .ARM.Collect$$libinit$$0000001D          0x0800024c   Section        0  libinit2.o(.ARM.Collect$$libinit$$0000001D)
    .ARM.Collect$$libinit$$0000001F          0x0800024c   Section        0  libinit2.o(.ARM.Collect$$libinit$$0000001F)
    .ARM.Collect$$libinit$$00000021          0x0800024c   Section        0  libinit2.o(.ARM.Collect$$libinit$$00000021)
    .ARM.Collect$$libinit$$00000023          0x0800024c   Section        0  libinit2.o(.ARM.Collect$$libinit$$00000023)
    .ARM.Collect$$libinit$$00000025          0x0800024c   Section        0  libinit2.o(.ARM.Collect$$libinit$$00000025)
    .ARM.Collect$$libinit$$0000002C          0x0800024c   Section        0  libinit2.o(.ARM.Collect$$libinit$$0000002C)
    .ARM.Collect$$libinit$$0000002E          0x0800024c   Section        0  libinit2.o(.ARM.Collect$$libinit$$0000002E)
    .ARM.Collect$$libinit$$00000030          0x0800024c   Section        0  libinit2.o(.ARM.Collect$$libinit$$00000030)
    .ARM.Collect$$libinit$$00000032          0x0800024c   Section        0  libinit2.o(.ARM.Collect$$libinit$$00000032)
    .ARM.Collect$$libinit$$00000033          0x0800024c   Section        2  libinit2.o(.ARM.Collect$$libinit$$00000033)
    .ARM.Collect$$libshutdown$$00000000      0x0800024e   Section        2  libshutdown.o(.ARM.Collect$$libshutdown$$00000000)
    .ARM.Collect$$libshutdown$$00000002      0x08000250   Section        0  libshutdown2.o(.ARM.Collect$$libshutdown$$00000002)
    .ARM.Collect$$libshutdown$$00000004      0x08000250   Section        0  libshutdown2.o(.ARM.Collect$$libshutdown$$00000004)
    .ARM.Collect$$libshutdown$$00000007      0x08000250   Section        0  libshutdown2.o(.ARM.Collect$$libshutdown$$00000007)
    .ARM.Collect$$libshutdown$$0000000A      0x08000250   Section        0  libshutdown2.o(.ARM.Collect$$libshutdown$$0000000A)
    .ARM.Collect$$libshutdown$$0000000C      0x08000250   Section        0  libshutdown2.o(.ARM.Collect$$libshutdown$$0000000C)
    .ARM.Collect$$libshutdown$$0000000F      0x08000250   Section        0  libshutdown2.o(.ARM.Collect$$libshutdown$$0000000F)
    .ARM.Collect$$libshutdown$$00000010      0x08000250   Section        2  libshutdown2.o(.ARM.Collect$$libshutdown$$00000010)
    .ARM.Collect$$rtentry$$00000000          0x08000252   Section        0  __rtentry.o(.ARM.Collect$$rtentry$$00000000)
    .ARM.Collect$$rtentry$$00000002          0x08000252   Section        0  __rtentry2.o(.ARM.Collect$$rtentry$$00000002)
    .ARM.Collect$$rtentry$$00000004          0x08000252   Section        6  __rtentry4.o(.ARM.Collect$$rtentry$$00000004)
    .ARM.Collect$$rtentry$$00000008          0x08000258   Section        8  __rtentry2.o(.ARM.Collect$$rtentry$$00000008)
    .ARM.Collect$$rtentry$$0000000A          0x08000260   Section        4  __rtentry2.o(.ARM.Collect$$rtentry$$0000000A)
    .ARM.Collect$$rtentry$$0000000C          0x08000264   Section        0  __rtentry2.o(.ARM.Collect$$rtentry$$0000000C)
    .ARM.Collect$$rtentry$$0000000D          0x08000264   Section        8  __rtentry2.o(.ARM.Collect$$rtentry$$0000000D)
    .ARM.Collect$$rtexit$$00000000           0x0800026c   Section        2  rtexit.o(.ARM.Collect$$rtexit$$00000000)
    .ARM.Collect$$rtexit$$00000002           0x0800026e   Section        0  rtexit2.o(.ARM.Collect$$rtexit$$00000002)
    .ARM.Collect$$rtexit$$00000003           0x0800026e   Section        4  rtexit2.o(.ARM.Collect$$rtexit$$00000003)
    .ARM.Collect$$rtexit$$00000004           0x08000272   Section        6  rtexit2.o(.ARM.Collect$$rtexit$$00000004)
    .emb_text                                0x08000278   Section      328  rtx_mempool.o(.emb_text)
    $v0                                      0x08000278   Number         0  rtx_mempool.o(.emb_text)
    .emb_text                                0x080003c0   Section      328  rtx_msgqueue.o(.emb_text)
    $v0                                      0x080003c0   Number         0  rtx_msgqueue.o(.emb_text)
    .emb_text                                0x08000508   Section      328  rtx_system.o(.emb_text)
    $v0                                      0x08000508   Number         0  rtx_system.o(.emb_text)
    .emb_text                                0x08000650   Section      328  rtx_thread.o(.emb_text)
    $v0                                      0x08000650   Number         0  rtx_thread.o(.emb_text)
    .text                                    0x08000798   Section      196  irq_cm4f.o(.text)
    $v0                                      0x08000798   Number         0  irq_cm4f.o(.text)
    .text                                    0x0800085c   Section       64  startup_stm32f407xx.o(.text)
    $v0                                      0x0800085c   Number         0  startup_stm32f407xx.o(.text)
    .text                                    0x0800089c   Section        0  noretval__2sprintf.o(.text)
    .text                                    0x080008c4   Section        0  __printf.o(.text)
    .text                                    0x0800092c   Section        0  _printf_str.o(.text)
    .text                                    0x0800097e   Section      138  rt_memcpy_v6.o(.text)
    .text                                    0x08000a08   Section       68  rt_memclr.o(.text)
    .text                                    0x08000a4c   Section       78  rt_memclr_w.o(.text)
    .text                                    0x08000a9a   Section        0  heapauxi.o(.text)
    .text                                    0x08000aa0   Section        0  _printf_char_common.o(.text)
    _printf_input_char                       0x08000aa1   Thumb Code    10  _printf_char_common.o(.text)
    .text                                    0x08000ad0   Section        0  _sputc.o(.text)
    .text                                    0x08000ada   Section        0  _printf_char.o(.text)
    .text                                    0x08000b06   Section      100  rt_memcpy_w.o(.text)
    .text                                    0x08000b6a   Section       74  sys_stackheap_outer.o(.text)
    .text                                    0x08000bb4   Section        0  exit.o(.text)
    .text                                    0x08000bc8   Section        8  libspace.o(.text)
    .text                                    0x08000bd0   Section        0  sys_exit.o(.text)
    .text                                    0x08000bdc   Section        2  use_no_semi.o(.text)
    .text                                    0x08000bde   Section        0  indicate_semi.o(.text)
    i.DMA2_Stream2_IRQHandler                0x08000be0   Section        0  usart_stm32f4xx.o(i.DMA2_Stream2_IRQHandler)
    i.DMA2_Stream7_IRQHandler                0x08000bf4   Section        0  usart_stm32f4xx.o(i.DMA2_Stream7_IRQHandler)
    i.DMA_CalcBaseAndBitshift                0x08000c08   Section        0  stm32f4xx_hal_dma.o(i.DMA_CalcBaseAndBitshift)
    DMA_CalcBaseAndBitshift                  0x08000c09   Thumb Code    46  stm32f4xx_hal_dma.o(i.DMA_CalcBaseAndBitshift)
    i.DMA_CheckFifoParam                     0x08000c3c   Section        0  stm32f4xx_hal_dma.o(i.DMA_CheckFifoParam)
    DMA_CheckFifoParam                       0x08000c3d   Thumb Code   170  stm32f4xx_hal_dma.o(i.DMA_CheckFifoParam)
    i.DMA_SetConfig                          0x08000ce6   Section        0  stm32f4xx_hal_dma.o(i.DMA_SetConfig)
    DMA_SetConfig                            0x08000ce7   Thumb Code    44  stm32f4xx_hal_dma.o(i.DMA_SetConfig)
    i.Enable_GPIO_Clock                      0x08000d14   Section        0  usart_stm32f4xx.o(i.Enable_GPIO_Clock)
    Enable_GPIO_Clock                        0x08000d15   Thumb Code   346  usart_stm32f4xx.o(i.Enable_GPIO_Clock)
    i.EvrRtxDelayCompleted                   0x08000e98   Section        0  rtx_evr.o(i.EvrRtxDelayCompleted)
    i.EvrRtxEventFlagsWaitTimeout            0x08000e9a   Section        0  rtx_evr.o(i.EvrRtxEventFlagsWaitTimeout)
    i.EvrRtxKernelError                      0x08000e9c   Section        0  rtx_evr.o(i.EvrRtxKernelError)
    i.EvrRtxKernelGetState                   0x08000e9e   Section        0  rtx_evr.o(i.EvrRtxKernelGetState)
    i.EvrRtxKernelInitialize                 0x08000ea0   Section        0  rtx_evr.o(i.EvrRtxKernelInitialize)
    i.EvrRtxKernelInitialized                0x08000ea2   Section        0  rtx_evr.o(i.EvrRtxKernelInitialized)
    i.EvrRtxKernelStart                      0x08000ea4   Section        0  rtx_evr.o(i.EvrRtxKernelStart)
    i.EvrRtxKernelStarted                    0x08000ea6   Section        0  rtx_evr.o(i.EvrRtxKernelStarted)
    i.EvrRtxMemoryAlloc                      0x08000ea8   Section        0  rtx_evr.o(i.EvrRtxMemoryAlloc)
    i.EvrRtxMemoryBlockAlloc                 0x08000eaa   Section        0  rtx_evr.o(i.EvrRtxMemoryBlockAlloc)
    i.EvrRtxMemoryBlockFree                  0x08000eac   Section        0  rtx_evr.o(i.EvrRtxMemoryBlockFree)
    i.EvrRtxMemoryBlockInit                  0x08000eae   Section        0  rtx_evr.o(i.EvrRtxMemoryBlockInit)
    i.EvrRtxMemoryFree                       0x08000eb0   Section        0  rtx_evr.o(i.EvrRtxMemoryFree)
    i.EvrRtxMemoryInit                       0x08000eb2   Section        0  rtx_evr.o(i.EvrRtxMemoryInit)
    i.EvrRtxMemoryPoolAllocTimeout           0x08000eb4   Section        0  rtx_evr.o(i.EvrRtxMemoryPoolAllocTimeout)
    i.EvrRtxMessageQueueCreated              0x08000eb6   Section        0  rtx_evr.o(i.EvrRtxMessageQueueCreated)
    i.EvrRtxMessageQueueError                0x08000eb8   Section        0  rtx_evr.o(i.EvrRtxMessageQueueError)
    i.EvrRtxMessageQueueGet                  0x08000eba   Section        0  rtx_evr.o(i.EvrRtxMessageQueueGet)
    i.EvrRtxMessageQueueGetPending           0x08000ebc   Section        0  rtx_evr.o(i.EvrRtxMessageQueueGetPending)
    i.EvrRtxMessageQueueGetTimeout           0x08000ebe   Section        0  rtx_evr.o(i.EvrRtxMessageQueueGetTimeout)
    i.EvrRtxMessageQueueInsertPending        0x08000ec0   Section        0  rtx_evr.o(i.EvrRtxMessageQueueInsertPending)
    i.EvrRtxMessageQueueInserted             0x08000ec2   Section        0  rtx_evr.o(i.EvrRtxMessageQueueInserted)
    i.EvrRtxMessageQueueNew                  0x08000ec4   Section        0  rtx_evr.o(i.EvrRtxMessageQueueNew)
    i.EvrRtxMessageQueueNotInserted          0x08000ec6   Section        0  rtx_evr.o(i.EvrRtxMessageQueueNotInserted)
    i.EvrRtxMessageQueueNotRetrieved         0x08000ec8   Section        0  rtx_evr.o(i.EvrRtxMessageQueueNotRetrieved)
    i.EvrRtxMessageQueuePut                  0x08000eca   Section        0  rtx_evr.o(i.EvrRtxMessageQueuePut)
    i.EvrRtxMessageQueuePutPending           0x08000ecc   Section        0  rtx_evr.o(i.EvrRtxMessageQueuePutPending)
    i.EvrRtxMessageQueuePutTimeout           0x08000ece   Section        0  rtx_evr.o(i.EvrRtxMessageQueuePutTimeout)
    i.EvrRtxMessageQueueRetrieved            0x08000ed0   Section        0  rtx_evr.o(i.EvrRtxMessageQueueRetrieved)
    i.EvrRtxMutexAcquire                     0x08000ed2   Section        0  rtx_evr.o(i.EvrRtxMutexAcquire)
    i.EvrRtxMutexAcquirePending              0x08000ed4   Section        0  rtx_evr.o(i.EvrRtxMutexAcquirePending)
    i.EvrRtxMutexAcquireTimeout              0x08000ed6   Section        0  rtx_evr.o(i.EvrRtxMutexAcquireTimeout)
    i.EvrRtxMutexAcquired                    0x08000ed8   Section        0  rtx_evr.o(i.EvrRtxMutexAcquired)
    i.EvrRtxMutexCreated                     0x08000eda   Section        0  rtx_evr.o(i.EvrRtxMutexCreated)
    i.EvrRtxMutexDelete                      0x08000edc   Section        0  rtx_evr.o(i.EvrRtxMutexDelete)
    i.EvrRtxMutexDestroyed                   0x08000ede   Section        0  rtx_evr.o(i.EvrRtxMutexDestroyed)
    i.EvrRtxMutexError                       0x08000ee0   Section        0  rtx_evr.o(i.EvrRtxMutexError)
    i.EvrRtxMutexNew                         0x08000ee2   Section        0  rtx_evr.o(i.EvrRtxMutexNew)
    i.EvrRtxMutexNotAcquired                 0x08000ee4   Section        0  rtx_evr.o(i.EvrRtxMutexNotAcquired)
    i.EvrRtxMutexRelease                     0x08000ee6   Section        0  rtx_evr.o(i.EvrRtxMutexRelease)
    i.EvrRtxMutexReleased                    0x08000ee8   Section        0  rtx_evr.o(i.EvrRtxMutexReleased)
    i.EvrRtxSemaphoreAcquireTimeout          0x08000eea   Section        0  rtx_evr.o(i.EvrRtxSemaphoreAcquireTimeout)
    i.EvrRtxThreadBlocked                    0x08000eec   Section        0  rtx_evr.o(i.EvrRtxThreadBlocked)
    i.EvrRtxThreadCreated                    0x08000eee   Section        0  rtx_evr.o(i.EvrRtxThreadCreated)
    i.EvrRtxThreadDestroyed                  0x08000ef0   Section        0  rtx_evr.o(i.EvrRtxThreadDestroyed)
    i.EvrRtxThreadError                      0x08000ef2   Section        0  rtx_evr.o(i.EvrRtxThreadError)
    i.EvrRtxThreadExit                       0x08000ef4   Section        0  rtx_evr.o(i.EvrRtxThreadExit)
    i.EvrRtxThreadFlagsWaitCompleted         0x08000ef6   Section        0  rtx_evr.o(i.EvrRtxThreadFlagsWaitCompleted)
    i.EvrRtxThreadFlagsWaitTimeout           0x08000ef8   Section        0  rtx_evr.o(i.EvrRtxThreadFlagsWaitTimeout)
    i.EvrRtxThreadJoined                     0x08000efa   Section        0  rtx_evr.o(i.EvrRtxThreadJoined)
    i.EvrRtxThreadNew                        0x08000efc   Section        0  rtx_evr.o(i.EvrRtxThreadNew)
    i.EvrRtxThreadPreempted                  0x08000efe   Section        0  rtx_evr.o(i.EvrRtxThreadPreempted)
    i.EvrRtxThreadSwitched                   0x08000f00   Section        0  rtx_evr.o(i.EvrRtxThreadSwitched)
    i.EvrRtxThreadTerminate                  0x08000f02   Section        0  rtx_evr.o(i.EvrRtxThreadTerminate)
    i.EvrRtxThreadUnblocked                  0x08000f04   Section        0  rtx_evr.o(i.EvrRtxThreadUnblocked)
    i.EvrRtxTimerCallback                    0x08000f06   Section        0  rtx_evr.o(i.EvrRtxTimerCallback)
    i.HAL_DMA_Abort                          0x08000f08   Section        0  stm32f4xx_hal_dma.o(i.HAL_DMA_Abort)
    i.HAL_DMA_DeInit                         0x08000fb2   Section        0  stm32f4xx_hal_dma.o(i.HAL_DMA_DeInit)
    i.HAL_DMA_IRQHandler                     0x08001024   Section        0  stm32f4xx_hal_dma.o(i.HAL_DMA_IRQHandler)
    i.HAL_DMA_Init                           0x08001264   Section        0  stm32f4xx_hal_dma.o(i.HAL_DMA_Init)
    i.HAL_DMA_Start_IT                       0x08001350   Section        0  stm32f4xx_hal_dma.o(i.HAL_DMA_Start_IT)
    i.HAL_GPIO_DeInit                        0x080013f0   Section        0  stm32f4xx_hal_gpio.o(i.HAL_GPIO_DeInit)
    i.HAL_GPIO_Init                          0x08001554   Section        0  stm32f4xx_hal_gpio.o(i.HAL_GPIO_Init)
    i.HAL_GPIO_ReadPin                       0x08001754   Section        0  stm32f4xx_hal_gpio.o(i.HAL_GPIO_ReadPin)
    i.HAL_GPIO_WritePin                      0x08001764   Section        0  stm32f4xx_hal_gpio.o(i.HAL_GPIO_WritePin)
    i.HAL_GetTick                            0x08001770   Section        0  stm32f4xx_hal.o(i.HAL_GetTick)
    i.HAL_NVIC_ClearPendingIRQ               0x0800177c   Section        0  stm32f4xx_hal_cortex.o(i.HAL_NVIC_ClearPendingIRQ)
    i.HAL_NVIC_DisableIRQ                    0x080017a0   Section        0  stm32f4xx_hal_cortex.o(i.HAL_NVIC_DisableIRQ)
    i.HAL_RCC_GetHCLKFreq                    0x080017e4   Section        0  stm32f4xx_hal_rcc.o(i.HAL_RCC_GetHCLKFreq)
    i.HAL_RCC_GetPCLK2Freq                   0x080017f0   Section        0  stm32f4xx_hal_rcc.o(i.HAL_RCC_GetPCLK2Freq)
    i.IsIrqMasked                            0x08001810   Section        0  rtx_kernel.o(i.IsIrqMasked)
    IsIrqMasked                              0x08001811   Thumb Code    24  rtx_kernel.o(i.IsIrqMasked)
    i.IsIrqMasked                            0x08001828   Section        0  rtx_msgqueue.o(i.IsIrqMasked)
    IsIrqMasked                              0x08001829   Thumb Code    24  rtx_msgqueue.o(i.IsIrqMasked)
    i.IsIrqMasked                            0x08001840   Section        0  rtx_mutex.o(i.IsIrqMasked)
    IsIrqMasked                              0x08001841   Thumb Code    24  rtx_mutex.o(i.IsIrqMasked)
    i.IsIrqMasked                            0x08001858   Section        0  rtx_thread.o(i.IsIrqMasked)
    IsIrqMasked                              0x08001859   Thumb Code    24  rtx_thread.o(i.IsIrqMasked)
    i.IsIrqMode                              0x08001870   Section        0  rtx_kernel.o(i.IsIrqMode)
    IsIrqMode                                0x08001871   Thumb Code    16  rtx_kernel.o(i.IsIrqMode)
    i.IsIrqMode                              0x08001880   Section        0  rtx_msgqueue.o(i.IsIrqMode)
    IsIrqMode                                0x08001881   Thumb Code    16  rtx_msgqueue.o(i.IsIrqMode)
    i.IsIrqMode                              0x08001890   Section        0  rtx_mutex.o(i.IsIrqMode)
    IsIrqMode                                0x08001891   Thumb Code    16  rtx_mutex.o(i.IsIrqMode)
    i.IsIrqMode                              0x080018a0   Section        0  rtx_thread.o(i.IsIrqMode)
    IsIrqMode                                0x080018a1   Thumb Code    16  rtx_thread.o(i.IsIrqMode)
    i.IsPrivileged                           0x080018b0   Section        0  rtx_kernel.o(i.IsPrivileged)
    IsPrivileged                             0x080018b1   Thumb Code    16  rtx_kernel.o(i.IsPrivileged)
    i.MemBlockPtr                            0x080018c0   Section        0  rtx_memory.o(i.MemBlockPtr)
    MemBlockPtr                              0x080018c1   Thumb Code    10  rtx_memory.o(i.MemBlockPtr)
    i.MessageQueueGet                        0x080018ca   Section        0  rtx_msgqueue.o(i.MessageQueueGet)
    MessageQueueGet                          0x080018cb   Thumb Code    52  rtx_msgqueue.o(i.MessageQueueGet)
    i.MessageQueuePut                        0x080018fe   Section        0  rtx_msgqueue.o(i.MessageQueuePut)
    MessageQueuePut                          0x080018ff   Thumb Code    76  rtx_msgqueue.o(i.MessageQueuePut)
    i.MessageQueueRemove                     0x0800194a   Section        0  rtx_msgqueue.o(i.MessageQueueRemove)
    MessageQueueRemove                       0x0800194b   Thumb Code    34  rtx_msgqueue.o(i.MessageQueueRemove)
    i.OS_Tick_AcknowledgeIRQ                 0x0800196c   Section        0  os_systick.o(i.OS_Tick_AcknowledgeIRQ)
    i.OS_Tick_Enable                         0x08001974   Section        0  os_systick.o(i.OS_Tick_Enable)
    i.OS_Tick_GetIRQn                        0x080019a4   Section        0  os_systick.o(i.OS_Tick_GetIRQn)
    i.OS_Tick_Setup                          0x080019ac   Section        0  os_systick.o(i.OS_Tick_Setup)
    i.SystemInit                             0x080019fc   Section        0  system_stm32f4xx.o(i.SystemInit)
    i.ThreadCreate_acq_cycle                 0x08001a60   Section        0  acq_cycle.o(i.ThreadCreate_acq_cycle)
    i.ThreadCreate_dispatcher_cycle          0x08001a78   Section        0  dispatcher_cycle.o(i.ThreadCreate_dispatcher_cycle)
    i.ThreadCreate_histories                 0x08001a90   Section        0  histories.o(i.ThreadCreate_histories)
    i.ThreadCreate_modbus_USB                0x08001aa8   Section        0  modbus_usb.o(i.ThreadCreate_modbus_USB)
    i.ThreadCreate_modbus_gateway            0x08001ac0   Section        0  modbus_gateway.o(i.ThreadCreate_modbus_gateway)
    i.ThreadCreate_modbus_socket             0x08001ad8   Section        0  modbus_socket.o(i.ThreadCreate_modbus_socket)
    i.ThreadFlagsCheck                       0x08001af0   Section        0  rtx_thread.o(i.ThreadFlagsCheck)
    ThreadFlagsCheck                         0x08001af1   Thumb Code    86  rtx_thread.o(i.ThreadFlagsCheck)
    i.Thread_acq_cycle                       0x08001b48   Section        0  acq_cycle.o(i.Thread_acq_cycle)
    i.Thread_dispatcher_cycle                0x08001b6c   Section        0  dispatcher_cycle.o(i.Thread_dispatcher_cycle)
    i.Thread_histories                       0x08001b98   Section        0  histories.o(i.Thread_histories)
    i.Thread_modbus_USB                      0x08001bbc   Section        0  modbus_usb.o(i.Thread_modbus_USB)
    i.Thread_modbus_gateway                  0x08001be0   Section        0  modbus_gateway.o(i.Thread_modbus_gateway)
    i.Thread_modbus_socket                   0x08001c08   Section        0  modbus_socket.o(i.Thread_modbus_socket)
    i.TimerInsert                            0x08001c30   Section        0  rtx_timer.o(i.TimerInsert)
    TimerInsert                              0x08001c31   Thumb Code    58  rtx_timer.o(i.TimerInsert)
    i.TimerUnlink                            0x08001c70   Section        0  rtx_timer.o(i.TimerUnlink)
    TimerUnlink                              0x08001c71   Thumb Code    18  rtx_timer.o(i.TimerUnlink)
    i.USART1_Control                         0x08001c88   Section        0  usart_stm32f4xx.o(i.USART1_Control)
    USART1_Control                           0x08001c89   Thumb Code    18  usart_stm32f4xx.o(i.USART1_Control)
    i.USART1_GetCapabilities                 0x08001ca0   Section        0  usart_stm32f4xx.o(i.USART1_GetCapabilities)
    USART1_GetCapabilities                   0x08001ca1   Thumb Code    12  usart_stm32f4xx.o(i.USART1_GetCapabilities)
    i.USART1_GetModemStatus                  0x08001cb0   Section        0  usart_stm32f4xx.o(i.USART1_GetModemStatus)
    USART1_GetModemStatus                    0x08001cb1   Thumb Code    12  usart_stm32f4xx.o(i.USART1_GetModemStatus)
    i.USART1_GetRxCount                      0x08001cc0   Section        0  usart_stm32f4xx.o(i.USART1_GetRxCount)
    USART1_GetRxCount                        0x08001cc1   Thumb Code    10  usart_stm32f4xx.o(i.USART1_GetRxCount)
    i.USART1_GetStatus                       0x08001cd0   Section        0  usart_stm32f4xx.o(i.USART1_GetStatus)
    USART1_GetStatus                         0x08001cd1   Thumb Code    12  usart_stm32f4xx.o(i.USART1_GetStatus)
    i.USART1_GetTxCount                      0x08001ce0   Section        0  usart_stm32f4xx.o(i.USART1_GetTxCount)
    USART1_GetTxCount                        0x08001ce1   Thumb Code    10  usart_stm32f4xx.o(i.USART1_GetTxCount)
    i.USART1_IRQHandler                      0x08001cf0   Section        0  usart_stm32f4xx.o(i.USART1_IRQHandler)
    i.USART1_Initialize                      0x08001d00   Section        0  usart_stm32f4xx.o(i.USART1_Initialize)
    USART1_Initialize                        0x08001d01   Thumb Code    14  usart_stm32f4xx.o(i.USART1_Initialize)
    i.USART1_PowerControl                    0x08001d14   Section        0  usart_stm32f4xx.o(i.USART1_PowerControl)
    USART1_PowerControl                      0x08001d15   Thumb Code    14  usart_stm32f4xx.o(i.USART1_PowerControl)
    i.USART1_RX_DMA_Complete                 0x08001d28   Section        0  usart_stm32f4xx.o(i.USART1_RX_DMA_Complete)
    USART1_RX_DMA_Complete                   0x08001d29   Thumb Code    12  usart_stm32f4xx.o(i.USART1_RX_DMA_Complete)
    i.USART1_Receive                         0x08001d38   Section        0  usart_stm32f4xx.o(i.USART1_Receive)
    USART1_Receive                           0x08001d39   Thumb Code    18  usart_stm32f4xx.o(i.USART1_Receive)
    i.USART1_Send                            0x08001d50   Section        0  usart_stm32f4xx.o(i.USART1_Send)
    USART1_Send                              0x08001d51   Thumb Code    18  usart_stm32f4xx.o(i.USART1_Send)
    i.USART1_SetModemControl                 0x08001d68   Section        0  usart_stm32f4xx.o(i.USART1_SetModemControl)
    USART1_SetModemControl                   0x08001d69   Thumb Code    14  usart_stm32f4xx.o(i.USART1_SetModemControl)
    i.USART1_TX_DMA_Complete                 0x08001d7c   Section        0  usart_stm32f4xx.o(i.USART1_TX_DMA_Complete)
    USART1_TX_DMA_Complete                   0x08001d7d   Thumb Code    12  usart_stm32f4xx.o(i.USART1_TX_DMA_Complete)
    i.USART1_Transfer                        0x08001d8c   Section        0  usart_stm32f4xx.o(i.USART1_Transfer)
    USART1_Transfer                          0x08001d8d   Thumb Code    22  usart_stm32f4xx.o(i.USART1_Transfer)
    i.USART1_Uninitialize                    0x08001da8   Section        0  usart_stm32f4xx.o(i.USART1_Uninitialize)
    USART1_Uninitialize                      0x08001da9   Thumb Code    10  usart_stm32f4xx.o(i.USART1_Uninitialize)
    i.USART_Control                          0x08001db8   Section        0  usart_stm32f4xx.o(i.USART_Control)
    USART_Control                            0x08001db9   Thumb Code  2284  usart_stm32f4xx.o(i.USART_Control)
    i.USART_GetCapabilities                  0x080026a4   Section        0  usart_stm32f4xx.o(i.USART_GetCapabilities)
    USART_GetCapabilities                    0x080026a5   Thumb Code     6  usart_stm32f4xx.o(i.USART_GetCapabilities)
    i.USART_GetModemStatus                   0x080026aa   Section        0  usart_stm32f4xx.o(i.USART_GetModemStatus)
    USART_GetModemStatus                     0x080026ab   Thumb Code   140  usart_stm32f4xx.o(i.USART_GetModemStatus)
    i.USART_GetRxCount                       0x08002736   Section        0  usart_stm32f4xx.o(i.USART_GetRxCount)
    USART_GetRxCount                         0x08002737   Thumb Code    28  usart_stm32f4xx.o(i.USART_GetRxCount)
    i.USART_GetStatus                        0x08002752   Section        0  usart_stm32f4xx.o(i.USART_GetStatus)
    USART_GetStatus                          0x08002753   Thumb Code   212  usart_stm32f4xx.o(i.USART_GetStatus)
    i.USART_GetTxCount                       0x08002826   Section        0  usart_stm32f4xx.o(i.USART_GetTxCount)
    USART_GetTxCount                         0x08002827   Thumb Code    28  usart_stm32f4xx.o(i.USART_GetTxCount)
    i.USART_IRQHandler                       0x08002842   Section        0  usart_stm32f4xx.o(i.USART_IRQHandler)
    i.USART_Initialize                       0x08002ab4   Section        0  usart_stm32f4xx.o(i.USART_Initialize)
    USART_Initialize                         0x08002ab5   Thumb Code   480  usart_stm32f4xx.o(i.USART_Initialize)
    i.USART_PeripheralReset                  0x08002ca0   Section        0  usart_stm32f4xx.o(i.USART_PeripheralReset)
    USART_PeripheralReset                    0x08002ca1   Thumb Code   278  usart_stm32f4xx.o(i.USART_PeripheralReset)
    i.USART_PowerControl                     0x08002dd4   Section        0  usart_stm32f4xx.o(i.USART_PowerControl)
    USART_PowerControl                       0x08002dd5   Thumb Code   802  usart_stm32f4xx.o(i.USART_PowerControl)
    i.USART_RX_DMA_Complete                  0x08003114   Section        0  usart_stm32f4xx.o(i.USART_RX_DMA_Complete)
    USART_RX_DMA_Complete                    0x08003115   Thumb Code   132  usart_stm32f4xx.o(i.USART_RX_DMA_Complete)
    i.USART_Receive                          0x08003198   Section        0  usart_stm32f4xx.o(i.USART_Receive)
    USART_Receive                            0x08003199   Thumb Code   326  usart_stm32f4xx.o(i.USART_Receive)
    i.USART_Send                             0x080032de   Section        0  usart_stm32f4xx.o(i.USART_Send)
    USART_Send                               0x080032df   Thumb Code   280  usart_stm32f4xx.o(i.USART_Send)
    i.USART_SetModemControl                  0x080033f6   Section        0  usart_stm32f4xx.o(i.USART_SetModemControl)
    USART_SetModemControl                    0x080033f7   Thumb Code   140  usart_stm32f4xx.o(i.USART_SetModemControl)
    i.USART_TX_DMA_Complete                  0x08003482   Section        0  usart_stm32f4xx.o(i.USART_TX_DMA_Complete)
    USART_TX_DMA_Complete                    0x08003483   Thumb Code    76  usart_stm32f4xx.o(i.USART_TX_DMA_Complete)
    i.USART_Transfer                         0x080034ce   Section        0  usart_stm32f4xx.o(i.USART_Transfer)
    USART_Transfer                           0x080034cf   Thumb Code   106  usart_stm32f4xx.o(i.USART_Transfer)
    i.USART_Uninitialize                     0x08003538   Section        0  usart_stm32f4xx.o(i.USART_Uninitialize)
    USART_Uninitialize                       0x08003539   Thumb Code   106  usart_stm32f4xx.o(i.USART_Uninitialize)
    i.USARTx_GetVersion                      0x080035a4   Section        0  usart_stm32f4xx.o(i.USARTx_GetVersion)
    USARTx_GetVersion                        0x080035a5   Thumb Code    10  usart_stm32f4xx.o(i.USARTx_GetVersion)
    i.__NVIC_ClearPendingIRQ                 0x080035b4   Section        0  usart_stm32f4xx.o(i.__NVIC_ClearPendingIRQ)
    __NVIC_ClearPendingIRQ                   0x080035b5   Thumb Code    22  usart_stm32f4xx.o(i.__NVIC_ClearPendingIRQ)
    i.__NVIC_EnableIRQ                       0x080035d0   Section        0  usart_stm32f4xx.o(i.__NVIC_EnableIRQ)
    __NVIC_EnableIRQ                         0x080035d1   Thumb Code    34  usart_stm32f4xx.o(i.__NVIC_EnableIRQ)
    i._mutex_acquire                         0x080035f2   Section        0  rtx_lib.o(i._mutex_acquire)
    __tagsym$$used                           0x080035f3   Number         0  rtx_lib.o(i._mutex_acquire)
    i._mutex_free                            0x08003608   Section        0  rtx_lib.o(i._mutex_free)
    __tagsym$$used                           0x08003609   Number         0  rtx_lib.o(i._mutex_free)
    i._mutex_initialize                      0x08003614   Section        0  rtx_lib.o(i._mutex_initialize)
    __tagsym$$used                           0x08003615   Number         0  rtx_lib.o(i._mutex_initialize)
    i._mutex_release                         0x08003636   Section        0  rtx_lib.o(i._mutex_release)
    __tagsym$$used                           0x08003637   Number         0  rtx_lib.o(i._mutex_release)
    i._platform_post_stackheap_init          0x08003648   Section        0  rtx_lib.o(i._platform_post_stackheap_init)
    i.isrRtxMessageQueueGet                  0x08003650   Section        0  rtx_msgqueue.o(i.isrRtxMessageQueueGet)
    isrRtxMessageQueueGet                    0x08003651   Thumb Code   130  rtx_msgqueue.o(i.isrRtxMessageQueueGet)
    i.isrRtxMessageQueuePut                  0x080036d2   Section        0  rtx_msgqueue.o(i.isrRtxMessageQueuePut)
    isrRtxMessageQueuePut                    0x080036d3   Thumb Code   134  rtx_msgqueue.o(i.isrRtxMessageQueuePut)
    i.isr_queue_get                          0x08003758   Section        0  rtx_system.o(i.isr_queue_get)
    isr_queue_get                            0x08003759   Thumb Code    46  rtx_system.o(i.isr_queue_get)
    i.isr_queue_put                          0x0800378c   Section        0  rtx_system.o(i.isr_queue_put)
    isr_queue_put                            0x0800378d   Thumb Code    56  rtx_system.o(i.isr_queue_put)
    i.main                                   0x080037c8   Section        0  main.o(i.main)
    i.osKernelGetState                       0x080037f0   Section        0  rtx_kernel.o(i.osKernelGetState)
    i.osKernelInitialize                     0x08003820   Section        0  rtx_kernel.o(i.osKernelInitialize)
    i.osKernelStart                          0x08003858   Section        0  rtx_kernel.o(i.osKernelStart)
    i.osMessageQueueGet                      0x0800388c   Section        0  rtx_msgqueue.o(i.osMessageQueueGet)
    i.osMessageQueueNew                      0x080038e0   Section        0  rtx_msgqueue.o(i.osMessageQueueNew)
    i.osMessageQueuePut                      0x0800392c   Section        0  rtx_msgqueue.o(i.osMessageQueuePut)
    i.osMutexAcquire                         0x08003980   Section        0  rtx_mutex.o(i.osMutexAcquire)
    i.osMutexDelete                          0x080039c4   Section        0  rtx_mutex.o(i.osMutexDelete)
    i.osMutexNew                             0x08003a00   Section        0  rtx_mutex.o(i.osMutexNew)
    i.osMutexRelease                         0x08003a3c   Section        0  rtx_mutex.o(i.osMutexRelease)
    i.osRtxErrorNotify                       0x08003a78   Section        0  rtx_config.o(i.osRtxErrorNotify)
    i.osRtxIdleThread                        0x08003a98   Section        0  rtx_config.o(i.osRtxIdleThread)
    i.osRtxKernelGetState                    0x08003a9c   Section        0  rtx_thread.o(i.osRtxKernelGetState)
    osRtxKernelGetState                      0x08003a9d   Thumb Code     6  rtx_thread.o(i.osRtxKernelGetState)
    i.osRtxKernelPreInit                     0x08003aa8   Section        0  rtx_kernel.o(i.osRtxKernelPreInit)
    i.osRtxMemoryAlloc                       0x08003aaa   Section        0  rtx_memory.o(i.osRtxMemoryAlloc)
    i.osRtxMemoryFree                        0x08003b98   Section        0  rtx_memory.o(i.osRtxMemoryFree)
    i.osRtxMemoryInit                        0x08003c14   Section        0  rtx_memory.o(i.osRtxMemoryInit)
    i.osRtxMemoryPoolAlloc                   0x08003c7e   Section        0  rtx_mempool.o(i.osRtxMemoryPoolAlloc)
    i.osRtxMemoryPoolFree                    0x08003cae   Section        0  rtx_mempool.o(i.osRtxMemoryPoolFree)
    i.osRtxMemoryPoolInit                    0x08003cf2   Section        0  rtx_mempool.o(i.osRtxMemoryPoolInit)
    i.osRtxMessageQueuePostProcess           0x08003d4a   Section        0  rtx_msgqueue.o(i.osRtxMessageQueuePostProcess)
    osRtxMessageQueuePostProcess             0x08003d4b   Thumb Code   264  rtx_msgqueue.o(i.osRtxMessageQueuePostProcess)
    i.osRtxMutexOwnerRelease                 0x08003e52   Section        0  rtx_mutex.o(i.osRtxMutexOwnerRelease)
    i.osRtxPendSV_Handler                    0x08003eb8   Section        0  rtx_system.o(i.osRtxPendSV_Handler)
    i.osRtxPostProcess                       0x08003f40   Section        0  rtx_system.o(i.osRtxPostProcess)
    i.osRtxThreadBlock                       0x08003f7c   Section        0  rtx_thread.o(i.osRtxThreadBlock)
    osRtxThreadBlock                         0x08003f7d   Thumb Code    58  rtx_thread.o(i.osRtxThreadBlock)
    i.osRtxThreadDelayInsert                 0x08003fbc   Section        0  rtx_thread.o(i.osRtxThreadDelayInsert)
    osRtxThreadDelayInsert                   0x08003fbd   Thumb Code    98  rtx_thread.o(i.osRtxThreadDelayInsert)
    i.osRtxThreadDelayRemove                 0x08004024   Section        0  rtx_thread.o(i.osRtxThreadDelayRemove)
    osRtxThreadDelayRemove                   0x08004025   Thumb Code    86  rtx_thread.o(i.osRtxThreadDelayRemove)
    i.osRtxThreadDelayTick                   0x08004080   Section        0  rtx_thread.o(i.osRtxThreadDelayTick)
    i.osRtxThreadDispatch                    0x08004160   Section        0  rtx_thread.o(i.osRtxThreadDispatch)
    i.osRtxThreadFree                        0x080041cc   Section        0  rtx_thread.o(i.osRtxThreadFree)
    osRtxThreadFree                          0x080041cd   Thumb Code    94  rtx_thread.o(i.osRtxThreadFree)
    i.osRtxThreadGetRunning                  0x08004230   Section        0  rtx_thread.o(i.osRtxThreadGetRunning)
    osRtxThreadGetRunning                    0x08004231   Thumb Code     6  rtx_thread.o(i.osRtxThreadGetRunning)
    i.osRtxThreadListGet                     0x0800423c   Section        0  rtx_thread.o(i.osRtxThreadListGet)
    i.osRtxThreadListPut                     0x08004256   Section        0  rtx_thread.o(i.osRtxThreadListPut)
    i.osRtxThreadListRemove                  0x08004282   Section        0  rtx_thread.o(i.osRtxThreadListRemove)
    i.osRtxThreadListRoot                    0x0800429c   Section        0  rtx_thread.o(i.osRtxThreadListRoot)
    osRtxThreadListRoot                      0x0800429d   Thumb Code    16  rtx_thread.o(i.osRtxThreadListRoot)
    i.osRtxThreadListSort                    0x080042ac   Section        0  rtx_thread.o(i.osRtxThreadListSort)
    i.osRtxThreadPostProcess                 0x080042d6   Section        0  rtx_thread.o(i.osRtxThreadPostProcess)
    osRtxThreadPostProcess                   0x080042d7   Thumb Code    52  rtx_thread.o(i.osRtxThreadPostProcess)
    i.osRtxThreadReadyPut                    0x0800430c   Section        0  rtx_thread.o(i.osRtxThreadReadyPut)
    i.osRtxThreadRegPtr                      0x08004324   Section        0  rtx_thread.o(i.osRtxThreadRegPtr)
    i.osRtxThreadSetRunning                  0x0800433c   Section        0  rtx_thread.o(i.osRtxThreadSetRunning)
    osRtxThreadSetRunning                    0x0800433d   Thumb Code     6  rtx_thread.o(i.osRtxThreadSetRunning)
    i.osRtxThreadStackCheck                  0x08004348   Section        0  rtx_thread.o(i.osRtxThreadStackCheck)
    i.osRtxThreadStartup                     0x08004374   Section        0  rtx_thread.o(i.osRtxThreadStartup)
    i.osRtxThreadSwitch                      0x080043c0   Section        0  rtx_thread.o(i.osRtxThreadSwitch)
    i.osRtxThreadWaitEnter                   0x080043dc   Section        0  rtx_thread.o(i.osRtxThreadWaitEnter)
    i.osRtxThreadWaitExit                    0x08004428   Section        0  rtx_thread.o(i.osRtxThreadWaitExit)
    i.osRtxTick_Handler                      0x08004460   Section        0  rtx_system.o(i.osRtxTick_Handler)
    i.osRtxTimerThread                       0x08004500   Section        0  rtx_timer.o(i.osRtxTimerThread)
    i.osRtxTimerTick                         0x08004550   Section        0  rtx_timer.o(i.osRtxTimerTick)
    osRtxTimerTick                           0x08004551   Thumb Code    88  rtx_timer.o(i.osRtxTimerTick)
    i.osThreadCreate                         0x080045ac   Section        0  cmsis_os1.o(i.osThreadCreate)
    i.osThreadExit                           0x080045c4   Section        0  rtx_thread.o(i.osThreadExit)
    i.osThreadNew                            0x080045e4   Section        0  rtx_thread.o(i.osThreadNew)
    i.osThreadTerminate                      0x08004630   Section        0  rtx_thread.o(i.osThreadTerminate)
    i.os_kernel_is_active                    0x0800466c   Section        0  rtx_lib.o(i.os_kernel_is_active)
    os_kernel_is_active                      0x0800466d   Thumb Code    28  rtx_lib.o(i.os_kernel_is_active)
    i.svcRtxKernelGetState                   0x0800468c   Section        0  rtx_kernel.o(i.svcRtxKernelGetState)
    svcRtxKernelGetState                     0x0800468d   Thumb Code    20  rtx_kernel.o(i.svcRtxKernelGetState)
    i.svcRtxKernelInitialize                 0x080046a4   Section        0  rtx_kernel.o(i.svcRtxKernelInitialize)
    svcRtxKernelInitialize                   0x080046a5   Thumb Code   538  rtx_kernel.o(i.svcRtxKernelInitialize)
    i.svcRtxKernelStart                      0x080048c8   Section        0  rtx_kernel.o(i.svcRtxKernelStart)
    svcRtxKernelStart                        0x080048c9   Thumb Code   200  rtx_kernel.o(i.svcRtxKernelStart)
    i.svcRtxMessageQueueGet                  0x080049a0   Section        0  rtx_msgqueue.o(i.svcRtxMessageQueueGet)
    svcRtxMessageQueueGet                    0x080049a1   Thumb Code   308  rtx_msgqueue.o(i.svcRtxMessageQueueGet)
    i.svcRtxMessageQueueNew                  0x08004ad8   Section        0  rtx_msgqueue.o(i.svcRtxMessageQueueNew)
    svcRtxMessageQueueNew                    0x08004ad9   Thumb Code   396  rtx_msgqueue.o(i.svcRtxMessageQueueNew)
    i.svcRtxMessageQueuePut                  0x08004c6c   Section        0  rtx_msgqueue.o(i.svcRtxMessageQueuePut)
    svcRtxMessageQueuePut                    0x08004c6d   Thumb Code   292  rtx_msgqueue.o(i.svcRtxMessageQueuePut)
    i.svcRtxMutexAcquire                     0x08004d94   Section        0  rtx_mutex.o(i.svcRtxMutexAcquire)
    svcRtxMutexAcquire                       0x08004d95   Thumb Code   264  rtx_mutex.o(i.svcRtxMutexAcquire)
    i.svcRtxMutexDelete                      0x08004ea0   Section        0  rtx_mutex.o(i.svcRtxMutexDelete)
    svcRtxMutexDelete                        0x08004ea1   Thumb Code   224  rtx_mutex.o(i.svcRtxMutexDelete)
    i.svcRtxMutexNew                         0x08004f84   Section        0  rtx_mutex.o(i.svcRtxMutexNew)
    svcRtxMutexNew                           0x08004f85   Thumb Code   168  rtx_mutex.o(i.svcRtxMutexNew)
    i.svcRtxMutexRelease                     0x08005030   Section        0  rtx_mutex.o(i.svcRtxMutexRelease)
    svcRtxMutexRelease                       0x08005031   Thumb Code   268  rtx_mutex.o(i.svcRtxMutexRelease)
    i.svcRtxThreadExit                       0x08005140   Section        0  rtx_thread.o(i.svcRtxThreadExit)
    svcRtxThreadExit                         0x08005141   Thumb Code   134  rtx_thread.o(i.svcRtxThreadExit)
    i.svcRtxThreadNew                        0x080051cc   Section        0  rtx_thread.o(i.svcRtxThreadNew)
    svcRtxThreadNew                          0x080051cd   Thumb Code   612  rtx_thread.o(i.svcRtxThreadNew)
    i.svcRtxThreadTerminate                  0x08005444   Section        0  rtx_thread.o(i.svcRtxThreadTerminate)
    svcRtxThreadTerminate                    0x08005445   Thumb Code   268  rtx_thread.o(i.svcRtxThreadTerminate)
    x$fpl$fpinit                             0x08005554   Section       10  fpinit.o(x$fpl$fpinit)
    $v0                                      0x08005554   Number         0  fpinit.o(x$fpl$fpinit)
    .constdata                               0x08005560   Section       40  acq_cycle.o(.constdata)
    .constdata                               0x08005588   Section       40  dispatcher_cycle.o(.constdata)
    .constdata                               0x080055b0   Section       40  histories.o(.constdata)
    .constdata                               0x080055d8   Section       40  modbus_gateway.o(.constdata)
    .constdata                               0x08005600   Section       40  modbus_socket.o(.constdata)
    .constdata                               0x08005628   Section       40  modbus_usb.o(.constdata)
    .constdata                               0x08005650   Section        1  irq_cm4f.o(.constdata)
    .constdata                               0x08005654   Section      100  rtx_lib.o(.constdata)
    os_idle_thread_attr                      0x08005654   Data          36  rtx_lib.o(.constdata)
    os_timer_thread_attr                     0x08005678   Data          36  rtx_lib.o(.constdata)
    os_timer_mq_attr                         0x0800569c   Data          24  rtx_lib.o(.constdata)
    .constdata                               0x080056b8   Section      184  usart_stm32f4xx.o(.constdata)
    usart_driver_version                     0x080056b8   Data           4  usart_stm32f4xx.o(.constdata)
    USART1_tx                                0x080056bc   Data          12  usart_stm32f4xx.o(.constdata)
    USART1_rx                                0x080056c8   Data          12  usart_stm32f4xx.o(.constdata)
    USART1_DMA_Tx                            0x080056d4   Data          24  usart_stm32f4xx.o(.constdata)
    USART1_DMA_Rx                            0x080056ec   Data          24  usart_stm32f4xx.o(.constdata)
    USART1_Resources                         0x08005704   Data          52  usart_stm32f4xx.o(.constdata)
    .constdata                               0x08005770   Section        8  stm32f4xx_hal_dma.o(.constdata)
    flagBitshiftOffset                       0x08005770   Data           8  stm32f4xx_hal_dma.o(.constdata)
    .constdata                               0x08005778   Section       24  system_stm32f4xx.o(.constdata)
    .conststrlit                             0x08005790   Section       11  rtx_kernel.o(.conststrlit)
    .rodata                                  0x0800579c   Section      160  rtx_lib.o(.rodata)
    __tagsym$$used                           0x0800579c   Number         0  rtx_lib.o(.rodata)
    __tagsym$$used                           0x08005804   Number         0  rtx_lib.o(.rodata)
    .bss.os                                  0x20000000   Section     4160  rtx_lib.o(.bss.os)
    os_mem                                   0x20000000   Data        4096  rtx_lib.o(.bss.os)
    os_isr_queue                             0x20001000   Data          64  rtx_lib.o(.bss.os)
    .bss.os.msgqueue.cb                      0x20001040   Section       52  rtx_lib.o(.bss.os.msgqueue.cb)
    os_timer_mq_cb                           0x20001040   Data          52  rtx_lib.o(.bss.os.msgqueue.cb)
    .bss.os.msgqueue.mem                     0x20001074   Section       80  rtx_lib.o(.bss.os.msgqueue.mem)
    os_timer_mq_data                         0x20001074   Data          80  rtx_lib.o(.bss.os.msgqueue.mem)
    .bss.os.thread.cb                        0x200010c4   Section       68  acq_cycle.o(.bss.os.thread.cb)
    os_thread_cb_Thread_acq_cycle            0x200010c4   Data          68  acq_cycle.o(.bss.os.thread.cb)
    .bss.os.thread.cb                        0x20001108   Section       68  dispatcher_cycle.o(.bss.os.thread.cb)
    os_thread_cb_Thread_dispatcher_cycle     0x20001108   Data          68  dispatcher_cycle.o(.bss.os.thread.cb)
    .bss.os.thread.cb                        0x2000114c   Section       68  histories.o(.bss.os.thread.cb)
    os_thread_cb_Thread_histories            0x2000114c   Data          68  histories.o(.bss.os.thread.cb)
    .bss.os.thread.cb                        0x20001190   Section       68  modbus_gateway.o(.bss.os.thread.cb)
    os_thread_cb_Thread_modbus_gateway       0x20001190   Data          68  modbus_gateway.o(.bss.os.thread.cb)
    .bss.os.thread.cb                        0x200011d4   Section       68  modbus_socket.o(.bss.os.thread.cb)
    os_thread_cb_Thread_modbus_socket        0x200011d4   Data          68  modbus_socket.o(.bss.os.thread.cb)
    .bss.os.thread.cb                        0x20001218   Section       68  modbus_usb.o(.bss.os.thread.cb)
    os_thread_cb_Thread_modbus_USB           0x20001218   Data          68  modbus_usb.o(.bss.os.thread.cb)
    .bss.os.thread.cb                        0x2000125c   Section      136  rtx_lib.o(.bss.os.thread.cb)
    os_idle_thread_cb                        0x2000125c   Data          68  rtx_lib.o(.bss.os.thread.cb)
    os_timer_thread_cb                       0x200012a0   Data          68  rtx_lib.o(.bss.os.thread.cb)
    .bss.os.thread.stack                     0x200012e8   Section      512  rtx_lib.o(.bss.os.thread.stack)
    os_idle_thread_stack                     0x200012e8   Data         256  rtx_lib.o(.bss.os.thread.stack)
    os_timer_thread_stack                    0x200013e8   Data         256  rtx_lib.o(.bss.os.thread.stack)
    .data                                    0x200014e8   Section        5  rtx_lib.o(.data)
    os_kernel_active                         0x200014ec   Data           1  rtx_lib.o(.data)
    .data                                    0x200014ed   Section        1  os_systick.o(.data)
    PendST                                   0x200014ed   Data           1  os_systick.o(.data)
    .data                                    0x200014f0   Section        9  stm32f4xx_hal.o(.data)
    .data                                    0x200014fc   Section        4  system_stm32f4xx.o(.data)
    .data.os                                 0x20001500   Section      164  rtx_kernel.o(.data.os)
    .bss                                     0x200015a4   Section       20  acq_cycle.o(.bss)
    .bss                                     0x200015b8   Section       20  dispatcher_cycle.o(.bss)
    .bss                                     0x200015cc   Section       20  histories.o(.bss)
    .bss                                     0x200015e0   Section       20  modbus_gateway.o(.bss)
    .bss                                     0x200015f4   Section       20  modbus_socket.o(.bss)
    .bss                                     0x20001608   Section       20  modbus_usb.o(.bss)
    .bss                                     0x2000161c   Section      248  usart_stm32f4xx.o(.bss)
    USART1_Info                              0x2000161c   Data          20  usart_stm32f4xx.o(.bss)
    USART1_TransferInfo                      0x20001630   Data          36  usart_stm32f4xx.o(.bss)
    hdma_usart1_tx                           0x20001654   Data          96  usart_stm32f4xx.o(.bss)
    hdma_usart1_rx                           0x200016b4   Data          96  usart_stm32f4xx.o(.bss)
    .bss                                     0x20001714   Section       96  libspace.o(.bss)
    HEAP                                     0x20001778   Section      512  startup_stm32f407xx.o(HEAP)
    Heap_Mem                                 0x20001778   Data         512  startup_stm32f407xx.o(HEAP)
    STACK                                    0x20001978   Section     1024  startup_stm32f407xx.o(STACK)
    Stack_Mem                                0x20001978   Data        1024  startup_stm32f407xx.o(STACK)
    __initial_sp                             0x20001d78   Data           0  startup_stm32f407xx.o(STACK)

    Global Symbols

    Symbol Name                              Value     Ov Type        Size  Object(Section)

    BuildAttributes$$THM_ISAv4$E$P$D$K$B$S$7EM$VFPi3$EXTD16$VFPS$VFMA$PE$A:L22UL41UL21$X:L11$S22US41US21$IEEE1$IW$USESV6$~STKCKD$USESV7$~SHL$OSPACE$ROPI$EBA8$UX$STANDARDLIB$REQ8$PRES8$EABIv2 0x00000000   Number         0  anon$$obj.o ABSOLUTE
    __ARM_use_no_argv                        0x00000000   Number         0  main.o ABSOLUTE
    .bss.os.evflags.cb$$Base                  - Undefined Weak Reference
    .bss.os.evflags.cb$$Limit                 - Undefined Weak Reference
    .bss.os.mempool.cb$$Base                  - Undefined Weak Reference
    .bss.os.mempool.cb$$Limit                 - Undefined Weak Reference
    .bss.os.mutex.cb$$Base                    - Undefined Weak Reference
    .bss.os.mutex.cb$$Limit                   - Undefined Weak Reference
    .bss.os.semaphore.cb$$Base                - Undefined Weak Reference
    .bss.os.semaphore.cb$$Limit               - Undefined Weak Reference
    .bss.os.timer.cb$$Base                    - Undefined Weak Reference
    .bss.os.timer.cb$$Limit                   - Undefined Weak Reference
    __ARM_exceptions_init                     - Undefined Weak Reference
    __alloca_initialize                       - Undefined Weak Reference
    __arm_preinit_                            - Undefined Weak Reference
    __cpp_initialize__aeabi_                  - Undefined Weak Reference
    __cxa_finalize                            - Undefined Weak Reference
    __rt_locale                               - Undefined Weak Reference
    __sigvec_lookup                           - Undefined Weak Reference
    _atexit_init                              - Undefined Weak Reference
    _call_atexit_fns                          - Undefined Weak Reference
    _clock_init                               - Undefined Weak Reference
    _fp_trap_init                             - Undefined Weak Reference
    _fp_trap_shutdown                         - Undefined Weak Reference
    _get_lc_collate                           - Undefined Weak Reference
    _get_lc_ctype                             - Undefined Weak Reference
    _get_lc_monetary                          - Undefined Weak Reference
    _get_lc_numeric                           - Undefined Weak Reference
    _get_lc_time                              - Undefined Weak Reference
    _getenv_init                              - Undefined Weak Reference
    _handle_redirection                       - Undefined Weak Reference
    _init_alloc                               - Undefined Weak Reference
    _init_user_alloc                          - Undefined Weak Reference
    _initio                                   - Undefined Weak Reference
    _printf_mbtowc                            - Undefined Weak Reference
    _printf_post_padding                      - Undefined Weak Reference
    _printf_pre_padding                       - Undefined Weak Reference
    _rand_init                                - Undefined Weak Reference
    _signal_finish                            - Undefined Weak Reference
    _signal_init                              - Undefined Weak Reference
    _terminate_alloc                          - Undefined Weak Reference
    _terminate_user_alloc                     - Undefined Weak Reference
    _terminateio                              - Undefined Weak Reference
    __Vectors_Size                           0x00000188   Number         0  startup_stm32f407xx.o ABSOLUTE
    __Vectors                                0x08000000   Data           4  startup_stm32f407xx.o(RESET)
    __Vectors_End                            0x08000188   Data           0  startup_stm32f407xx.o(RESET)
    __main                                   0x08000189   Thumb Code     8  __main.o(!!!main)
    __scatterload                            0x08000191   Thumb Code     0  __scatter.o(!!!scatter)
    __scatterload_rt2                        0x08000191   Thumb Code    44  __scatter.o(!!!scatter)
    __scatterload_rt2_thumb_only             0x08000191   Thumb Code     0  __scatter.o(!!!scatter)
    __scatterload_null                       0x0800019f   Thumb Code     0  __scatter.o(!!!scatter)
    __decompress                             0x080001c5   Thumb Code    90  __dczerorl2.o(!!dczerorl2)
    __decompress1                            0x080001c5   Thumb Code     0  __dczerorl2.o(!!dczerorl2)
    __scatterload_zeroinit                   0x08000221   Thumb Code    28  __scatter_zi.o(!!handler_zi)
    _printf_percent                          0x0800023d   Thumb Code     0  _printf_percent.o(.ARM.Collect$$_printf_percent$$00000000)
    _printf_s                                0x0800023d   Thumb Code     0  _printf_s.o(.ARM.Collect$$_printf_percent$$00000014)
    _printf_percent_end                      0x08000243   Thumb Code     0  _printf_percent_end.o(.ARM.Collect$$_printf_percent$$00000017)
    __rt_lib_init                            0x08000247   Thumb Code     0  libinit.o(.ARM.Collect$$libinit$$00000000)
    __rt_lib_init_fp_1                       0x08000249   Thumb Code     0  libinit2.o(.ARM.Collect$$libinit$$00000001)
    __rt_lib_init_alloca_1                   0x0800024d   Thumb Code     0  libinit2.o(.ARM.Collect$$libinit$$0000002E)
    __rt_lib_init_argv_1                     0x0800024d   Thumb Code     0  libinit2.o(.ARM.Collect$$libinit$$0000002C)
    __rt_lib_init_atexit_1                   0x0800024d   Thumb Code     0  libinit2.o(.ARM.Collect$$libinit$$0000001B)
    __rt_lib_init_clock_1                    0x0800024d   Thumb Code     0  libinit2.o(.ARM.Collect$$libinit$$00000021)
    __rt_lib_init_cpp_1                      0x0800024d   Thumb Code     0  libinit2.o(.ARM.Collect$$libinit$$00000032)
    __rt_lib_init_exceptions_1               0x0800024d   Thumb Code     0  libinit2.o(.ARM.Collect$$libinit$$00000030)
    __rt_lib_init_fp_trap_1                  0x0800024d   Thumb Code     0  libinit2.o(.ARM.Collect$$libinit$$0000001F)
    __rt_lib_init_getenv_1                   0x0800024d   Thumb Code     0  libinit2.o(.ARM.Collect$$libinit$$00000023)
    __rt_lib_init_heap_1                     0x0800024d   Thumb Code     0  libinit2.o(.ARM.Collect$$libinit$$0000000A)
    __rt_lib_init_lc_collate_1               0x0800024d   Thumb Code     0  libinit2.o(.ARM.Collect$$libinit$$00000011)
    __rt_lib_init_lc_ctype_1                 0x0800024d   Thumb Code     0  libinit2.o(.ARM.Collect$$libinit$$00000013)
    __rt_lib_init_lc_monetary_1              0x0800024d   Thumb Code     0  libinit2.o(.ARM.Collect$$libinit$$00000015)
    __rt_lib_init_lc_numeric_1               0x0800024d   Thumb Code     0  libinit2.o(.ARM.Collect$$libinit$$00000017)
    __rt_lib_init_lc_time_1                  0x0800024d   Thumb Code     0  libinit2.o(.ARM.Collect$$libinit$$00000019)
    __rt_lib_init_preinit_1                  0x0800024d   Thumb Code     0  libinit2.o(.ARM.Collect$$libinit$$00000004)
    __rt_lib_init_rand_1                     0x0800024d   Thumb Code     0  libinit2.o(.ARM.Collect$$libinit$$0000000E)
    __rt_lib_init_return                     0x0800024d   Thumb Code     0  libinit2.o(.ARM.Collect$$libinit$$00000033)
    __rt_lib_init_signal_1                   0x0800024d   Thumb Code     0  libinit2.o(.ARM.Collect$$libinit$$0000001D)
    __rt_lib_init_stdio_1                    0x0800024d   Thumb Code     0  libinit2.o(.ARM.Collect$$libinit$$00000025)
    __rt_lib_init_user_alloc_1               0x0800024d   Thumb Code     0  libinit2.o(.ARM.Collect$$libinit$$0000000C)
    __rt_lib_shutdown                        0x0800024f   Thumb Code     0  libshutdown.o(.ARM.Collect$$libshutdown$$00000000)
    __rt_lib_shutdown_cpp_1                  0x08000251   Thumb Code     0  libshutdown2.o(.ARM.Collect$$libshutdown$$00000002)
    __rt_lib_shutdown_fp_trap_1              0x08000251   Thumb Code     0  libshutdown2.o(.ARM.Collect$$libshutdown$$00000007)
    __rt_lib_shutdown_heap_1                 0x08000251   Thumb Code     0  libshutdown2.o(.ARM.Collect$$libshutdown$$0000000F)
    __rt_lib_shutdown_return                 0x08000251   Thumb Code     0  libshutdown2.o(.ARM.Collect$$libshutdown$$00000010)
    __rt_lib_shutdown_signal_1               0x08000251   Thumb Code     0  libshutdown2.o(.ARM.Collect$$libshutdown$$0000000A)
    __rt_lib_shutdown_stdio_1                0x08000251   Thumb Code     0  libshutdown2.o(.ARM.Collect$$libshutdown$$00000004)
    __rt_lib_shutdown_user_alloc_1           0x08000251   Thumb Code     0  libshutdown2.o(.ARM.Collect$$libshutdown$$0000000C)
    __rt_entry                               0x08000253   Thumb Code     0  __rtentry.o(.ARM.Collect$$rtentry$$00000000)
    __rt_entry_presh_1                       0x08000253   Thumb Code     0  __rtentry2.o(.ARM.Collect$$rtentry$$00000002)
    __rt_entry_sh                            0x08000253   Thumb Code     0  __rtentry4.o(.ARM.Collect$$rtentry$$00000004)
    __rt_entry_postsh_1                      0x08000259   Thumb Code     0  __rtentry2.o(.ARM.Collect$$rtentry$$00000008)
    __rt_entry_li                            0x08000261   Thumb Code     0  __rtentry2.o(.ARM.Collect$$rtentry$$0000000A)
    __rt_entry_main                          0x08000265   Thumb Code     0  __rtentry2.o(.ARM.Collect$$rtentry$$0000000D)
    __rt_entry_postli_1                      0x08000265   Thumb Code     0  __rtentry2.o(.ARM.Collect$$rtentry$$0000000C)
    __rt_exit                                0x0800026d   Thumb Code     0  rtexit.o(.ARM.Collect$$rtexit$$00000000)
    __rt_exit_ls                             0x0800026f   Thumb Code     0  rtexit2.o(.ARM.Collect$$rtexit$$00000003)
    __rt_exit_prels_1                        0x0800026f   Thumb Code     0  rtexit2.o(.ARM.Collect$$rtexit$$00000002)
    __rt_exit_exit                           0x08000273   Thumb Code     0  rtexit2.o(.ARM.Collect$$rtexit$$00000004)
    __asm___13_rtx_mempool_c_7914b4c7__atomic_wr8 0x08000279   Thumb Code    16  rtx_mempool.o(.emb_text)
    __asm___13_rtx_mempool_c_7914b4c7__atomic_set32 0x08000289   Thumb Code    20  rtx_mempool.o(.emb_text)
    __asm___13_rtx_mempool_c_7914b4c7__atomic_clr32 0x0800029d   Thumb Code    22  rtx_mempool.o(.emb_text)
    __asm___13_rtx_mempool_c_7914b4c7__atomic_chk32_all 0x080002b3   Thumb Code    38  rtx_mempool.o(.emb_text)
    __asm___13_rtx_mempool_c_7914b4c7__atomic_chk32_any 0x080002d9   Thumb Code    34  rtx_mempool.o(.emb_text)
    __asm___13_rtx_mempool_c_7914b4c7__atomic_inc32 0x080002fb   Thumb Code    18  rtx_mempool.o(.emb_text)
    __asm___13_rtx_mempool_c_7914b4c7__atomic_inc16_lt 0x0800030d   Thumb Code    30  rtx_mempool.o(.emb_text)
    __asm___13_rtx_mempool_c_7914b4c7__atomic_inc16_lim 0x0800032b   Thumb Code    26  rtx_mempool.o(.emb_text)
    __asm___13_rtx_mempool_c_7914b4c7__atomic_dec32 0x08000345   Thumb Code    18  rtx_mempool.o(.emb_text)
    __asm___13_rtx_mempool_c_7914b4c7__atomic_dec32_nz 0x08000357   Thumb Code    26  rtx_mempool.o(.emb_text)
    __asm___13_rtx_mempool_c_7914b4c7__atomic_dec16_nz 0x08000371   Thumb Code    26  rtx_mempool.o(.emb_text)
    __asm___13_rtx_mempool_c_7914b4c7__atomic_link_get 0x0800038b   Thumb Code    26  rtx_mempool.o(.emb_text)
    __asm___13_rtx_mempool_c_7914b4c7__atomic_link_put 0x080003a5   Thumb Code    28  rtx_mempool.o(.emb_text)
    __asm___14_rtx_msgqueue_c_ba128ae8__atomic_wr8 0x080003c1   Thumb Code    16  rtx_msgqueue.o(.emb_text)
    __asm___14_rtx_msgqueue_c_ba128ae8__atomic_set32 0x080003d1   Thumb Code    20  rtx_msgqueue.o(.emb_text)
    __asm___14_rtx_msgqueue_c_ba128ae8__atomic_clr32 0x080003e5   Thumb Code    22  rtx_msgqueue.o(.emb_text)
    __asm___14_rtx_msgqueue_c_ba128ae8__atomic_chk32_all 0x080003fb   Thumb Code    38  rtx_msgqueue.o(.emb_text)
    __asm___14_rtx_msgqueue_c_ba128ae8__atomic_chk32_any 0x08000421   Thumb Code    34  rtx_msgqueue.o(.emb_text)
    __asm___14_rtx_msgqueue_c_ba128ae8__atomic_inc32 0x08000443   Thumb Code    18  rtx_msgqueue.o(.emb_text)
    __asm___14_rtx_msgqueue_c_ba128ae8__atomic_inc16_lt 0x08000455   Thumb Code    30  rtx_msgqueue.o(.emb_text)
    __asm___14_rtx_msgqueue_c_ba128ae8__atomic_inc16_lim 0x08000473   Thumb Code    26  rtx_msgqueue.o(.emb_text)
    __asm___14_rtx_msgqueue_c_ba128ae8__atomic_dec32 0x0800048d   Thumb Code    18  rtx_msgqueue.o(.emb_text)
    __asm___14_rtx_msgqueue_c_ba128ae8__atomic_dec32_nz 0x0800049f   Thumb Code    26  rtx_msgqueue.o(.emb_text)
    __asm___14_rtx_msgqueue_c_ba128ae8__atomic_dec16_nz 0x080004b9   Thumb Code    26  rtx_msgqueue.o(.emb_text)
    __asm___14_rtx_msgqueue_c_ba128ae8__atomic_link_get 0x080004d3   Thumb Code    26  rtx_msgqueue.o(.emb_text)
    __asm___14_rtx_msgqueue_c_ba128ae8__atomic_link_put 0x080004ed   Thumb Code    28  rtx_msgqueue.o(.emb_text)
    __asm___12_rtx_system_c_024f2f18__atomic_wr8 0x08000509   Thumb Code    16  rtx_system.o(.emb_text)
    __asm___12_rtx_system_c_024f2f18__atomic_set32 0x08000519   Thumb Code    20  rtx_system.o(.emb_text)
    __asm___12_rtx_system_c_024f2f18__atomic_clr32 0x0800052d   Thumb Code    22  rtx_system.o(.emb_text)
    __asm___12_rtx_system_c_024f2f18__atomic_chk32_all 0x08000543   Thumb Code    38  rtx_system.o(.emb_text)
    __asm___12_rtx_system_c_024f2f18__atomic_chk32_any 0x08000569   Thumb Code    34  rtx_system.o(.emb_text)
    __asm___12_rtx_system_c_024f2f18__atomic_inc32 0x0800058b   Thumb Code    18  rtx_system.o(.emb_text)
    __asm___12_rtx_system_c_024f2f18__atomic_inc16_lt 0x0800059d   Thumb Code    30  rtx_system.o(.emb_text)
    __asm___12_rtx_system_c_024f2f18__atomic_inc16_lim 0x080005bb   Thumb Code    26  rtx_system.o(.emb_text)
    __asm___12_rtx_system_c_024f2f18__atomic_dec32 0x080005d5   Thumb Code    18  rtx_system.o(.emb_text)
    __asm___12_rtx_system_c_024f2f18__atomic_dec32_nz 0x080005e7   Thumb Code    26  rtx_system.o(.emb_text)
    __asm___12_rtx_system_c_024f2f18__atomic_dec16_nz 0x08000601   Thumb Code    26  rtx_system.o(.emb_text)
    __asm___12_rtx_system_c_024f2f18__atomic_link_get 0x0800061b   Thumb Code    26  rtx_system.o(.emb_text)
    __asm___12_rtx_system_c_024f2f18__atomic_link_put 0x08000635   Thumb Code    28  rtx_system.o(.emb_text)
    __asm___12_rtx_thread_c_add96be5__atomic_wr8 0x08000651   Thumb Code    16  rtx_thread.o(.emb_text)
    __asm___12_rtx_thread_c_add96be5__atomic_set32 0x08000661   Thumb Code    20  rtx_thread.o(.emb_text)
    __asm___12_rtx_thread_c_add96be5__atomic_clr32 0x08000675   Thumb Code    22  rtx_thread.o(.emb_text)
    __asm___12_rtx_thread_c_add96be5__atomic_chk32_all 0x0800068b   Thumb Code    38  rtx_thread.o(.emb_text)
    __asm___12_rtx_thread_c_add96be5__atomic_chk32_any 0x080006b1   Thumb Code    34  rtx_thread.o(.emb_text)
    __asm___12_rtx_thread_c_add96be5__atomic_inc32 0x080006d3   Thumb Code    18  rtx_thread.o(.emb_text)
    __asm___12_rtx_thread_c_add96be5__atomic_inc16_lt 0x080006e5   Thumb Code    30  rtx_thread.o(.emb_text)
    __asm___12_rtx_thread_c_add96be5__atomic_inc16_lim 0x08000703   Thumb Code    26  rtx_thread.o(.emb_text)
    __asm___12_rtx_thread_c_add96be5__atomic_dec32 0x0800071d   Thumb Code    18  rtx_thread.o(.emb_text)
    __asm___12_rtx_thread_c_add96be5__atomic_dec32_nz 0x0800072f   Thumb Code    26  rtx_thread.o(.emb_text)
    __asm___12_rtx_thread_c_add96be5__atomic_dec16_nz 0x08000749   Thumb Code    26  rtx_thread.o(.emb_text)
    __asm___12_rtx_thread_c_add96be5__atomic_link_get 0x08000763   Thumb Code    26  rtx_thread.o(.emb_text)
    __asm___12_rtx_thread_c_add96be5__atomic_link_put 0x0800077d   Thumb Code    28  rtx_thread.o(.emb_text)
    SVC_Handler                              0x08000799   Thumb Code   152  irq_cm4f.o(.text)
    PendSV_Handler                           0x08000831   Thumb Code    16  irq_cm4f.o(.text)
    SysTick_Handler                          0x08000841   Thumb Code    16  irq_cm4f.o(.text)
    Reset_Handler                            0x0800085d   Thumb Code     8  startup_stm32f407xx.o(.text)
    NMI_Handler                              0x08000865   Thumb Code     2  startup_stm32f407xx.o(.text)
    HardFault_Handler                        0x08000867   Thumb Code     2  startup_stm32f407xx.o(.text)
    MemManage_Handler                        0x08000869   Thumb Code     2  startup_stm32f407xx.o(.text)
    BusFault_Handler                         0x0800086b   Thumb Code     2  startup_stm32f407xx.o(.text)
    UsageFault_Handler                       0x0800086d   Thumb Code     2  startup_stm32f407xx.o(.text)
    DebugMon_Handler                         0x08000871   Thumb Code     2  startup_stm32f407xx.o(.text)
    ADC_IRQHandler                           0x08000877   Thumb Code     0  startup_stm32f407xx.o(.text)
    CAN1_RX0_IRQHandler                      0x08000877   Thumb Code     0  startup_stm32f407xx.o(.text)
    CAN1_RX1_IRQHandler                      0x08000877   Thumb Code     0  startup_stm32f407xx.o(.text)
    CAN1_SCE_IRQHandler                      0x08000877   Thumb Code     0  startup_stm32f407xx.o(.text)
    CAN1_TX_IRQHandler                       0x08000877   Thumb Code     0  startup_stm32f407xx.o(.text)
    CAN2_RX0_IRQHandler                      0x08000877   Thumb Code     0  startup_stm32f407xx.o(.text)
    CAN2_RX1_IRQHandler                      0x08000877   Thumb Code     0  startup_stm32f407xx.o(.text)
    CAN2_SCE_IRQHandler                      0x08000877   Thumb Code     0  startup_stm32f407xx.o(.text)
    CAN2_TX_IRQHandler                       0x08000877   Thumb Code     0  startup_stm32f407xx.o(.text)
    DCMI_IRQHandler                          0x08000877   Thumb Code     0  startup_stm32f407xx.o(.text)
    DMA1_Stream0_IRQHandler                  0x08000877   Thumb Code     0  startup_stm32f407xx.o(.text)
    DMA1_Stream1_IRQHandler                  0x08000877   Thumb Code     0  startup_stm32f407xx.o(.text)
    DMA1_Stream2_IRQHandler                  0x08000877   Thumb Code     0  startup_stm32f407xx.o(.text)
    DMA1_Stream3_IRQHandler                  0x08000877   Thumb Code     0  startup_stm32f407xx.o(.text)
    DMA1_Stream4_IRQHandler                  0x08000877   Thumb Code     0  startup_stm32f407xx.o(.text)
    DMA1_Stream5_IRQHandler                  0x08000877   Thumb Code     0  startup_stm32f407xx.o(.text)
    DMA1_Stream6_IRQHandler                  0x08000877   Thumb Code     0  startup_stm32f407xx.o(.text)
    DMA1_Stream7_IRQHandler                  0x08000877   Thumb Code     0  startup_stm32f407xx.o(.text)
    DMA2_Stream0_IRQHandler                  0x08000877   Thumb Code     0  startup_stm32f407xx.o(.text)
    DMA2_Stream1_IRQHandler                  0x08000877   Thumb Code     0  startup_stm32f407xx.o(.text)
    DMA2_Stream3_IRQHandler                  0x08000877   Thumb Code     0  startup_stm32f407xx.o(.text)
    DMA2_Stream4_IRQHandler                  0x08000877   Thumb Code     0  startup_stm32f407xx.o(.text)
    DMA2_Stream5_IRQHandler                  0x08000877   Thumb Code     0  startup_stm32f407xx.o(.text)
    DMA2_Stream6_IRQHandler                  0x08000877   Thumb Code     0  startup_stm32f407xx.o(.text)
    ETH_IRQHandler                           0x08000877   Thumb Code     0  startup_stm32f407xx.o(.text)
    ETH_WKUP_IRQHandler                      0x08000877   Thumb Code     0  startup_stm32f407xx.o(.text)
    EXTI0_IRQHandler                         0x08000877   Thumb Code     0  startup_stm32f407xx.o(.text)
    EXTI15_10_IRQHandler                     0x08000877   Thumb Code     0  startup_stm32f407xx.o(.text)
    EXTI1_IRQHandler                         0x08000877   Thumb Code     0  startup_stm32f407xx.o(.text)
    EXTI2_IRQHandler                         0x08000877   Thumb Code     0  startup_stm32f407xx.o(.text)
    EXTI3_IRQHandler                         0x08000877   Thumb Code     0  startup_stm32f407xx.o(.text)
    EXTI4_IRQHandler                         0x08000877   Thumb Code     0  startup_stm32f407xx.o(.text)
    EXTI9_5_IRQHandler                       0x08000877   Thumb Code     0  startup_stm32f407xx.o(.text)
    FLASH_IRQHandler                         0x08000877   Thumb Code     0  startup_stm32f407xx.o(.text)
    FMC_IRQHandler                           0x08000877   Thumb Code     0  startup_stm32f407xx.o(.text)
    FPU_IRQHandler                           0x08000877   Thumb Code     0  startup_stm32f407xx.o(.text)
    HASH_RNG_IRQHandler                      0x08000877   Thumb Code     0  startup_stm32f407xx.o(.text)
    I2C1_ER_IRQHandler                       0x08000877   Thumb Code     0  startup_stm32f407xx.o(.text)
    I2C1_EV_IRQHandler                       0x08000877   Thumb Code     0  startup_stm32f407xx.o(.text)
    I2C2_ER_IRQHandler                       0x08000877   Thumb Code     0  startup_stm32f407xx.o(.text)
    I2C2_EV_IRQHandler                       0x08000877   Thumb Code     0  startup_stm32f407xx.o(.text)
    I2C3_ER_IRQHandler                       0x08000877   Thumb Code     0  startup_stm32f407xx.o(.text)
    I2C3_EV_IRQHandler                       0x08000877   Thumb Code     0  startup_stm32f407xx.o(.text)
    OTG_FS_IRQHandler                        0x08000877   Thumb Code     0  startup_stm32f407xx.o(.text)
    OTG_FS_WKUP_IRQHandler                   0x08000877   Thumb Code     0  startup_stm32f407xx.o(.text)
    OTG_HS_EP1_IN_IRQHandler                 0x08000877   Thumb Code     0  startup_stm32f407xx.o(.text)
    OTG_HS_EP1_OUT_IRQHandler                0x08000877   Thumb Code     0  startup_stm32f407xx.o(.text)
    OTG_HS_IRQHandler                        0x08000877   Thumb Code     0  startup_stm32f407xx.o(.text)
    OTG_HS_WKUP_IRQHandler                   0x08000877   Thumb Code     0  startup_stm32f407xx.o(.text)
    PVD_IRQHandler                           0x08000877   Thumb Code     0  startup_stm32f407xx.o(.text)
    RCC_IRQHandler                           0x08000877   Thumb Code     0  startup_stm32f407xx.o(.text)
    RTC_Alarm_IRQHandler                     0x08000877   Thumb Code     0  startup_stm32f407xx.o(.text)
    RTC_WKUP_IRQHandler                      0x08000877   Thumb Code     0  startup_stm32f407xx.o(.text)
    SDIO_IRQHandler                          0x08000877   Thumb Code     0  startup_stm32f407xx.o(.text)
    SPI1_IRQHandler                          0x08000877   Thumb Code     0  startup_stm32f407xx.o(.text)
    SPI2_IRQHandler                          0x08000877   Thumb Code     0  startup_stm32f407xx.o(.text)
    SPI3_IRQHandler                          0x08000877   Thumb Code     0  startup_stm32f407xx.o(.text)
    TAMP_STAMP_IRQHandler                    0x08000877   Thumb Code     0  startup_stm32f407xx.o(.text)
    TIM1_BRK_TIM9_IRQHandler                 0x08000877   Thumb Code     0  startup_stm32f407xx.o(.text)
    TIM1_CC_IRQHandler                       0x08000877   Thumb Code     0  startup_stm32f407xx.o(.text)
    TIM1_TRG_COM_TIM11_IRQHandler            0x08000877   Thumb Code     0  startup_stm32f407xx.o(.text)
    TIM1_UP_TIM10_IRQHandler                 0x08000877   Thumb Code     0  startup_stm32f407xx.o(.text)
    TIM2_IRQHandler                          0x08000877   Thumb Code     0  startup_stm32f407xx.o(.text)
    TIM3_IRQHandler                          0x08000877   Thumb Code     0  startup_stm32f407xx.o(.text)
    TIM4_IRQHandler                          0x08000877   Thumb Code     0  startup_stm32f407xx.o(.text)
    TIM5_IRQHandler                          0x08000877   Thumb Code     0  startup_stm32f407xx.o(.text)
    TIM6_DAC_IRQHandler                      0x08000877   Thumb Code     0  startup_stm32f407xx.o(.text)
    TIM7_IRQHandler                          0x08000877   Thumb Code     0  startup_stm32f407xx.o(.text)
    TIM8_BRK_TIM12_IRQHandler                0x08000877   Thumb Code     0  startup_stm32f407xx.o(.text)
    TIM8_CC_IRQHandler                       0x08000877   Thumb Code     0  startup_stm32f407xx.o(.text)
    TIM8_TRG_COM_TIM14_IRQHandler            0x08000877   Thumb Code     0  startup_stm32f407xx.o(.text)
    TIM8_UP_TIM13_IRQHandler                 0x08000877   Thumb Code     0  startup_stm32f407xx.o(.text)
    UART4_IRQHandler                         0x08000877   Thumb Code     0  startup_stm32f407xx.o(.text)
    UART5_IRQHandler                         0x08000877   Thumb Code     0  startup_stm32f407xx.o(.text)
    USART2_IRQHandler                        0x08000877   Thumb Code     0  startup_stm32f407xx.o(.text)
    USART3_IRQHandler                        0x08000877   Thumb Code     0  startup_stm32f407xx.o(.text)
    USART6_IRQHandler                        0x08000877   Thumb Code     0  startup_stm32f407xx.o(.text)
    WWDG_IRQHandler                          0x08000877   Thumb Code     0  startup_stm32f407xx.o(.text)
    __user_initial_stackheap                 0x08000879   Thumb Code     0  startup_stm32f407xx.o(.text)
    __2sprintf                               0x0800089d   Thumb Code    34  noretval__2sprintf.o(.text)
    __printf                                 0x080008c5   Thumb Code   104  __printf.o(.text)
    _printf_str                              0x0800092d   Thumb Code    82  _printf_str.o(.text)
    __aeabi_memcpy                           0x0800097f   Thumb Code     0  rt_memcpy_v6.o(.text)
    __rt_memcpy                              0x0800097f   Thumb Code   138  rt_memcpy_v6.o(.text)
    _memcpy_lastbytes                        0x080009e5   Thumb Code     0  rt_memcpy_v6.o(.text)
    __aeabi_memclr                           0x08000a09   Thumb Code     0  rt_memclr.o(.text)
    __rt_memclr                              0x08000a09   Thumb Code    68  rt_memclr.o(.text)
    _memset                                  0x08000a0d   Thumb Code     0  rt_memclr.o(.text)
    __aeabi_memclr4                          0x08000a4d   Thumb Code     0  rt_memclr_w.o(.text)
    __aeabi_memclr8                          0x08000a4d   Thumb Code     0  rt_memclr_w.o(.text)
    __rt_memclr_w                            0x08000a4d   Thumb Code    78  rt_memclr_w.o(.text)
    _memset_w                                0x08000a51   Thumb Code     0  rt_memclr_w.o(.text)
    __use_two_region_memory                  0x08000a9b   Thumb Code     2  heapauxi.o(.text)
    __rt_heap_escrow$2region                 0x08000a9d   Thumb Code     2  heapauxi.o(.text)
    __rt_heap_expand$2region                 0x08000a9f   Thumb Code     2  heapauxi.o(.text)
    _printf_char_common                      0x08000aab   Thumb Code    32  _printf_char_common.o(.text)
    _sputc                                   0x08000ad1   Thumb Code    10  _sputc.o(.text)
    _printf_cs_common                        0x08000adb   Thumb Code    20  _printf_char.o(.text)
    _printf_char                             0x08000aef   Thumb Code    16  _printf_char.o(.text)
    _printf_string                           0x08000aff   Thumb Code     8  _printf_char.o(.text)
    __aeabi_memcpy4                          0x08000b07   Thumb Code     0  rt_memcpy_w.o(.text)
    __aeabi_memcpy8                          0x08000b07   Thumb Code     0  rt_memcpy_w.o(.text)
    __rt_memcpy_w                            0x08000b07   Thumb Code   100  rt_memcpy_w.o(.text)
    _memcpy_lastbytes_aligned                0x08000b4f   Thumb Code     0  rt_memcpy_w.o(.text)
    __user_setup_stackheap                   0x08000b6b   Thumb Code    74  sys_stackheap_outer.o(.text)
    exit                                     0x08000bb5   Thumb Code    18  exit.o(.text)
    __user_libspace                          0x08000bc9   Thumb Code     8  libspace.o(.text)
    __user_perproc_libspace                  0x08000bc9   Thumb Code     0  libspace.o(.text)
    _sys_exit                                0x08000bd1   Thumb Code     8  sys_exit.o(.text)
    __I$use$semihosting                      0x08000bdd   Thumb Code     0  use_no_semi.o(.text)
    __use_no_semihosting_swi                 0x08000bdd   Thumb Code     2  use_no_semi.o(.text)
    __semihosting_library_function           0x08000bdf   Thumb Code     0  indicate_semi.o(.text)
    DMA2_Stream2_IRQHandler                  0x08000be1   Thumb Code    16  usart_stm32f4xx.o(i.DMA2_Stream2_IRQHandler)
    DMA2_Stream7_IRQHandler                  0x08000bf5   Thumb Code    16  usart_stm32f4xx.o(i.DMA2_Stream7_IRQHandler)
    EvrRtxDelayCompleted                     0x08000e99   Thumb Code     2  rtx_evr.o(i.EvrRtxDelayCompleted)
    EvrRtxEventFlagsWaitTimeout              0x08000e9b   Thumb Code     2  rtx_evr.o(i.EvrRtxEventFlagsWaitTimeout)
    EvrRtxKernelError                        0x08000e9d   Thumb Code     2  rtx_evr.o(i.EvrRtxKernelError)
    EvrRtxKernelGetState                     0x08000e9f   Thumb Code     2  rtx_evr.o(i.EvrRtxKernelGetState)
    EvrRtxKernelInitialize                   0x08000ea1   Thumb Code     2  rtx_evr.o(i.EvrRtxKernelInitialize)
    EvrRtxKernelInitialized                  0x08000ea3   Thumb Code     2  rtx_evr.o(i.EvrRtxKernelInitialized)
    EvrRtxKernelStart                        0x08000ea5   Thumb Code     2  rtx_evr.o(i.EvrRtxKernelStart)
    EvrRtxKernelStarted                      0x08000ea7   Thumb Code     2  rtx_evr.o(i.EvrRtxKernelStarted)
    EvrRtxMemoryAlloc                        0x08000ea9   Thumb Code     2  rtx_evr.o(i.EvrRtxMemoryAlloc)
    EvrRtxMemoryBlockAlloc                   0x08000eab   Thumb Code     2  rtx_evr.o(i.EvrRtxMemoryBlockAlloc)
    EvrRtxMemoryBlockFree                    0x08000ead   Thumb Code     2  rtx_evr.o(i.EvrRtxMemoryBlockFree)
    EvrRtxMemoryBlockInit                    0x08000eaf   Thumb Code     2  rtx_evr.o(i.EvrRtxMemoryBlockInit)
    EvrRtxMemoryFree                         0x08000eb1   Thumb Code     2  rtx_evr.o(i.EvrRtxMemoryFree)
    EvrRtxMemoryInit                         0x08000eb3   Thumb Code     2  rtx_evr.o(i.EvrRtxMemoryInit)
    EvrRtxMemoryPoolAllocTimeout             0x08000eb5   Thumb Code     2  rtx_evr.o(i.EvrRtxMemoryPoolAllocTimeout)
    EvrRtxMessageQueueCreated                0x08000eb7   Thumb Code     2  rtx_evr.o(i.EvrRtxMessageQueueCreated)
    EvrRtxMessageQueueError                  0x08000eb9   Thumb Code     2  rtx_evr.o(i.EvrRtxMessageQueueError)
    EvrRtxMessageQueueGet                    0x08000ebb   Thumb Code     2  rtx_evr.o(i.EvrRtxMessageQueueGet)
    EvrRtxMessageQueueGetPending             0x08000ebd   Thumb Code     2  rtx_evr.o(i.EvrRtxMessageQueueGetPending)
    EvrRtxMessageQueueGetTimeout             0x08000ebf   Thumb Code     2  rtx_evr.o(i.EvrRtxMessageQueueGetTimeout)
    EvrRtxMessageQueueInsertPending          0x08000ec1   Thumb Code     2  rtx_evr.o(i.EvrRtxMessageQueueInsertPending)
    EvrRtxMessageQueueInserted               0x08000ec3   Thumb Code     2  rtx_evr.o(i.EvrRtxMessageQueueInserted)
    EvrRtxMessageQueueNew                    0x08000ec5   Thumb Code     2  rtx_evr.o(i.EvrRtxMessageQueueNew)
    EvrRtxMessageQueueNotInserted            0x08000ec7   Thumb Code     2  rtx_evr.o(i.EvrRtxMessageQueueNotInserted)
    EvrRtxMessageQueueNotRetrieved           0x08000ec9   Thumb Code     2  rtx_evr.o(i.EvrRtxMessageQueueNotRetrieved)
    EvrRtxMessageQueuePut                    0x08000ecb   Thumb Code     2  rtx_evr.o(i.EvrRtxMessageQueuePut)
    EvrRtxMessageQueuePutPending             0x08000ecd   Thumb Code     2  rtx_evr.o(i.EvrRtxMessageQueuePutPending)
    EvrRtxMessageQueuePutTimeout             0x08000ecf   Thumb Code     2  rtx_evr.o(i.EvrRtxMessageQueuePutTimeout)
    EvrRtxMessageQueueRetrieved              0x08000ed1   Thumb Code     2  rtx_evr.o(i.EvrRtxMessageQueueRetrieved)
    EvrRtxMutexAcquire                       0x08000ed3   Thumb Code     2  rtx_evr.o(i.EvrRtxMutexAcquire)
    EvrRtxMutexAcquirePending                0x08000ed5   Thumb Code     2  rtx_evr.o(i.EvrRtxMutexAcquirePending)
    EvrRtxMutexAcquireTimeout                0x08000ed7   Thumb Code     2  rtx_evr.o(i.EvrRtxMutexAcquireTimeout)
    EvrRtxMutexAcquired                      0x08000ed9   Thumb Code     2  rtx_evr.o(i.EvrRtxMutexAcquired)
    EvrRtxMutexCreated                       0x08000edb   Thumb Code     2  rtx_evr.o(i.EvrRtxMutexCreated)
    EvrRtxMutexDelete                        0x08000edd   Thumb Code     2  rtx_evr.o(i.EvrRtxMutexDelete)
    EvrRtxMutexDestroyed                     0x08000edf   Thumb Code     2  rtx_evr.o(i.EvrRtxMutexDestroyed)
    EvrRtxMutexError                         0x08000ee1   Thumb Code     2  rtx_evr.o(i.EvrRtxMutexError)
    EvrRtxMutexNew                           0x08000ee3   Thumb Code     2  rtx_evr.o(i.EvrRtxMutexNew)
    EvrRtxMutexNotAcquired                   0x08000ee5   Thumb Code     2  rtx_evr.o(i.EvrRtxMutexNotAcquired)
    EvrRtxMutexRelease                       0x08000ee7   Thumb Code     2  rtx_evr.o(i.EvrRtxMutexRelease)
    EvrRtxMutexReleased                      0x08000ee9   Thumb Code     2  rtx_evr.o(i.EvrRtxMutexReleased)
    EvrRtxSemaphoreAcquireTimeout            0x08000eeb   Thumb Code     2  rtx_evr.o(i.EvrRtxSemaphoreAcquireTimeout)
    EvrRtxThreadBlocked                      0x08000eed   Thumb Code     2  rtx_evr.o(i.EvrRtxThreadBlocked)
    EvrRtxThreadCreated                      0x08000eef   Thumb Code     2  rtx_evr.o(i.EvrRtxThreadCreated)
    EvrRtxThreadDestroyed                    0x08000ef1   Thumb Code     2  rtx_evr.o(i.EvrRtxThreadDestroyed)
    EvrRtxThreadError                        0x08000ef3   Thumb Code     2  rtx_evr.o(i.EvrRtxThreadError)
    EvrRtxThreadExit                         0x08000ef5   Thumb Code     2  rtx_evr.o(i.EvrRtxThreadExit)
    EvrRtxThreadFlagsWaitCompleted           0x08000ef7   Thumb Code     2  rtx_evr.o(i.EvrRtxThreadFlagsWaitCompleted)
    EvrRtxThreadFlagsWaitTimeout             0x08000ef9   Thumb Code     2  rtx_evr.o(i.EvrRtxThreadFlagsWaitTimeout)
    EvrRtxThreadJoined                       0x08000efb   Thumb Code     2  rtx_evr.o(i.EvrRtxThreadJoined)
    EvrRtxThreadNew                          0x08000efd   Thumb Code     2  rtx_evr.o(i.EvrRtxThreadNew)
    EvrRtxThreadPreempted                    0x08000eff   Thumb Code     2  rtx_evr.o(i.EvrRtxThreadPreempted)
    EvrRtxThreadSwitched                     0x08000f01   Thumb Code     2  rtx_evr.o(i.EvrRtxThreadSwitched)
    EvrRtxThreadTerminate                    0x08000f03   Thumb Code     2  rtx_evr.o(i.EvrRtxThreadTerminate)
    EvrRtxThreadUnblocked                    0x08000f05   Thumb Code     2  rtx_evr.o(i.EvrRtxThreadUnblocked)
    EvrRtxTimerCallback                      0x08000f07   Thumb Code     2  rtx_evr.o(i.EvrRtxTimerCallback)
    HAL_DMA_Abort                            0x08000f09   Thumb Code   170  stm32f4xx_hal_dma.o(i.HAL_DMA_Abort)
    HAL_DMA_DeInit                           0x08000fb3   Thumb Code   112  stm32f4xx_hal_dma.o(i.HAL_DMA_DeInit)
    HAL_DMA_IRQHandler                       0x08001025   Thumb Code   570  stm32f4xx_hal_dma.o(i.HAL_DMA_IRQHandler)
    HAL_DMA_Init                             0x08001265   Thumb Code   232  stm32f4xx_hal_dma.o(i.HAL_DMA_Init)
    HAL_DMA_Start_IT                         0x08001351   Thumb Code   158  stm32f4xx_hal_dma.o(i.HAL_DMA_Start_IT)
    HAL_GPIO_DeInit                          0x080013f1   Thumb Code   316  stm32f4xx_hal_gpio.o(i.HAL_GPIO_DeInit)
    HAL_GPIO_Init                            0x08001555   Thumb Code   466  stm32f4xx_hal_gpio.o(i.HAL_GPIO_Init)
    HAL_GPIO_ReadPin                         0x08001755   Thumb Code    16  stm32f4xx_hal_gpio.o(i.HAL_GPIO_ReadPin)
    HAL_GPIO_WritePin                        0x08001765   Thumb Code    12  stm32f4xx_hal_gpio.o(i.HAL_GPIO_WritePin)
    HAL_GetTick                              0x08001771   Thumb Code     6  stm32f4xx_hal.o(i.HAL_GetTick)
    HAL_NVIC_ClearPendingIRQ                 0x0800177d   Thumb Code    30  stm32f4xx_hal_cortex.o(i.HAL_NVIC_ClearPendingIRQ)
    HAL_NVIC_DisableIRQ                      0x080017a1   Thumb Code    62  stm32f4xx_hal_cortex.o(i.HAL_NVIC_DisableIRQ)
    HAL_RCC_GetHCLKFreq                      0x080017e5   Thumb Code     6  stm32f4xx_hal_rcc.o(i.HAL_RCC_GetHCLKFreq)
    HAL_RCC_GetPCLK2Freq                     0x080017f1   Thumb Code    22  stm32f4xx_hal_rcc.o(i.HAL_RCC_GetPCLK2Freq)
    OS_Tick_AcknowledgeIRQ                   0x0800196d   Thumb Code     8  os_systick.o(i.OS_Tick_AcknowledgeIRQ)
    OS_Tick_Enable                           0x08001975   Thumb Code    38  os_systick.o(i.OS_Tick_Enable)
    OS_Tick_GetIRQn                          0x080019a5   Thumb Code     6  os_systick.o(i.OS_Tick_GetIRQn)
    OS_Tick_Setup                            0x080019ad   Thumb Code    66  os_systick.o(i.OS_Tick_Setup)
    SystemInit                               0x080019fd   Thumb Code    82  system_stm32f4xx.o(i.SystemInit)
    ThreadCreate_acq_cycle                   0x08001a61   Thumb Code    20  acq_cycle.o(i.ThreadCreate_acq_cycle)
    ThreadCreate_dispatcher_cycle            0x08001a79   Thumb Code    20  dispatcher_cycle.o(i.ThreadCreate_dispatcher_cycle)
    ThreadCreate_histories                   0x08001a91   Thumb Code    20  histories.o(i.ThreadCreate_histories)
    ThreadCreate_modbus_USB                  0x08001aa9   Thumb Code    20  modbus_usb.o(i.ThreadCreate_modbus_USB)
    ThreadCreate_modbus_gateway              0x08001ac1   Thumb Code    20  modbus_gateway.o(i.ThreadCreate_modbus_gateway)
    ThreadCreate_modbus_socket               0x08001ad9   Thumb Code    20  modbus_socket.o(i.ThreadCreate_modbus_socket)
    Thread_acq_cycle                         0x08001b49   Thumb Code    16  acq_cycle.o(i.Thread_acq_cycle)
    Thread_dispatcher_cycle                  0x08001b6d   Thumb Code    16  dispatcher_cycle.o(i.Thread_dispatcher_cycle)
    Thread_histories                         0x08001b99   Thumb Code    16  histories.o(i.Thread_histories)
    Thread_modbus_USB                        0x08001bbd   Thumb Code    16  modbus_usb.o(i.Thread_modbus_USB)
    Thread_modbus_gateway                    0x08001be1   Thumb Code    16  modbus_gateway.o(i.Thread_modbus_gateway)
    Thread_modbus_socket                     0x08001c09   Thumb Code    16  modbus_socket.o(i.Thread_modbus_socket)
    USART1_IRQHandler                        0x08001cf1   Thumb Code    10  usart_stm32f4xx.o(i.USART1_IRQHandler)
    USART_IRQHandler                         0x08002843   Thumb Code   626  usart_stm32f4xx.o(i.USART_IRQHandler)
    _mutex_acquire                           0x080035f3   Thumb Code    22  rtx_lib.o(i._mutex_acquire)
    _mutex_free                              0x08003609   Thumb Code    12  rtx_lib.o(i._mutex_free)
    _mutex_initialize                        0x08003615   Thumb Code    34  rtx_lib.o(i._mutex_initialize)
    _mutex_release                           0x08003637   Thumb Code    18  rtx_lib.o(i._mutex_release)
    _platform_post_stackheap_init            0x08003649   Thumb Code     8  rtx_lib.o(i._platform_post_stackheap_init)
    main                                     0x080037c9   Thumb Code    38  main.o(i.main)
    osKernelGetState                         0x080037f1   Thumb Code    44  rtx_kernel.o(i.osKernelGetState)
    osKernelInitialize                       0x08003821   Thumb Code    52  rtx_kernel.o(i.osKernelInitialize)
    osKernelStart                            0x08003859   Thumb Code    48  rtx_kernel.o(i.osKernelStart)
    osMessageQueueGet                        0x0800388d   Thumb Code    78  rtx_msgqueue.o(i.osMessageQueueGet)
    osMessageQueueNew                        0x080038e1   Thumb Code    70  rtx_msgqueue.o(i.osMessageQueueNew)
    osMessageQueuePut                        0x0800392d   Thumb Code    78  rtx_msgqueue.o(i.osMessageQueuePut)
    osMutexAcquire                           0x08003981   Thumb Code    62  rtx_mutex.o(i.osMutexAcquire)
    osMutexDelete                            0x080039c5   Thumb Code    56  rtx_mutex.o(i.osMutexDelete)
    osMutexNew                               0x08003a01   Thumb Code    54  rtx_mutex.o(i.osMutexNew)
    osMutexRelease                           0x08003a3d   Thumb Code    56  rtx_mutex.o(i.osMutexRelease)
    osRtxErrorNotify                         0x08003a79   Thumb Code    32  rtx_config.o(i.osRtxErrorNotify)
    osRtxIdleThread                          0x08003a99   Thumb Code     4  rtx_config.o(i.osRtxIdleThread)
    osRtxKernelPreInit                       0x08003aa9   Thumb Code     2  rtx_kernel.o(i.osRtxKernelPreInit)
    osRtxMemoryAlloc                         0x08003aab   Thumb Code   238  rtx_memory.o(i.osRtxMemoryAlloc)
    osRtxMemoryFree                          0x08003b99   Thumb Code   124  rtx_memory.o(i.osRtxMemoryFree)
    osRtxMemoryInit                          0x08003c15   Thumb Code   106  rtx_memory.o(i.osRtxMemoryInit)
    osRtxMemoryPoolAlloc                     0x08003c7f   Thumb Code    48  rtx_mempool.o(i.osRtxMemoryPoolAlloc)
    osRtxMemoryPoolFree                      0x08003caf   Thumb Code    68  rtx_mempool.o(i.osRtxMemoryPoolFree)
    osRtxMemoryPoolInit                      0x08003cf3   Thumb Code    88  rtx_mempool.o(i.osRtxMemoryPoolInit)
    osRtxMutexOwnerRelease                   0x08003e53   Thumb Code   102  rtx_mutex.o(i.osRtxMutexOwnerRelease)
    osRtxPendSV_Handler                      0x08003eb9   Thumb Code   130  rtx_system.o(i.osRtxPendSV_Handler)
    osRtxPostProcess                         0x08003f41   Thumb Code    50  rtx_system.o(i.osRtxPostProcess)
    osRtxThreadDelayTick                     0x08004081   Thumb Code   220  rtx_thread.o(i.osRtxThreadDelayTick)
    osRtxThreadDispatch                      0x08004161   Thumb Code   102  rtx_thread.o(i.osRtxThreadDispatch)
    osRtxThreadListGet                       0x0800423d   Thumb Code    26  rtx_thread.o(i.osRtxThreadListGet)
    osRtxThreadListPut                       0x08004257   Thumb Code    44  rtx_thread.o(i.osRtxThreadListPut)
    osRtxThreadListRemove                    0x08004283   Thumb Code    26  rtx_thread.o(i.osRtxThreadListRemove)
    osRtxThreadListSort                      0x080042ad   Thumb Code    42  rtx_thread.o(i.osRtxThreadListSort)
    osRtxThreadReadyPut                      0x0800430d   Thumb Code    18  rtx_thread.o(i.osRtxThreadReadyPut)
    osRtxThreadRegPtr                        0x08004325   Thumb Code    24  rtx_thread.o(i.osRtxThreadRegPtr)
    osRtxThreadStackCheck                    0x08004349   Thumb Code    38  rtx_thread.o(i.osRtxThreadStackCheck)
    osRtxThreadStartup                       0x08004375   Thumb Code    60  rtx_thread.o(i.osRtxThreadStartup)
    osRtxThreadSwitch                        0x080043c1   Thumb Code    24  rtx_thread.o(i.osRtxThreadSwitch)
    osRtxThreadWaitEnter                     0x080043dd   Thumb Code    72  rtx_thread.o(i.osRtxThreadWaitEnter)
    osRtxThreadWaitExit                      0x08004429   Thumb Code    54  rtx_thread.o(i.osRtxThreadWaitExit)
    osRtxTick_Handler                        0x08004461   Thumb Code   154  rtx_system.o(i.osRtxTick_Handler)
    osRtxTimerThread                         0x08004501   Thumb Code    66  rtx_timer.o(i.osRtxTimerThread)
    osThreadCreate                           0x080045ad   Thumb Code    24  cmsis_os1.o(i.osThreadCreate)
    osThreadExit                             0x080045c5   Thumb Code    28  rtx_thread.o(i.osThreadExit)
    osThreadNew                              0x080045e5   Thumb Code    70  rtx_thread.o(i.osThreadNew)
    osThreadTerminate                        0x08004631   Thumb Code    56  rtx_thread.o(i.osThreadTerminate)
    _fp_init                                 0x08005555   Thumb Code    10  fpinit.o(x$fpl$fpinit)
    __fplib_config_fpu_vfp                   0x0800555d   Thumb Code     0  fpinit.o(x$fpl$fpinit)
    __fplib_config_pureend_doubles           0x0800555d   Thumb Code     0  fpinit.o(x$fpl$fpinit)
    os_thread_def_Thread_acq_cycle           0x08005560   Data          40  acq_cycle.o(.constdata)
    os_thread_def_Thread_dispatcher_cycle    0x08005588   Data          40  dispatcher_cycle.o(.constdata)
    os_thread_def_Thread_histories           0x080055b0   Data          40  histories.o(.constdata)
    os_thread_def_Thread_modbus_gateway      0x080055d8   Data          40  modbus_gateway.o(.constdata)
    os_thread_def_Thread_modbus_socket       0x08005600   Data          40  modbus_socket.o(.constdata)
    os_thread_def_Thread_modbus_USB          0x08005628   Data          40  modbus_usb.o(.constdata)
    irqRtxLib                                0x08005650   Data           1  irq_cm4f.o(.constdata)
    osRtxUserSVC                             0x080056b4   Data           4  rtx_lib.o(.constdata)
    Driver_USART1                            0x08005738   Data          56  usart_stm32f4xx.o(.constdata)
    AHBPrescTable                            0x08005778   Data          16  system_stm32f4xx.o(.constdata)
    APBPrescTable                            0x08005788   Data           8  system_stm32f4xx.o(.constdata)
    osRtxConfig                              0x0800579c   Data         104  rtx_lib.o(.rodata)
    os_cb_sections                           0x08005804   Data          56  rtx_lib.o(.rodata)
    Region$$Table$$Base                      0x0800583c   Number         0  anon$$obj.o(Region$$Table)
    Region$$Table$$Limit                     0x0800585c   Number         0  anon$$obj.o(Region$$Table)
    .bss.os.msgqueue.cb$$Base                0x20001040   Number         0  rtx_lib.o(.bss.os.msgqueue.cb)
    .bss.os.msgqueue.cb$$Limit               0x20001074   Number         0  rtx_lib.o(.bss.os.msgqueue.cb)
    .bss.os.thread.cb$$Base                  0x200010c4   Number         0  acq_cycle.o(.bss.os.thread.cb)
    .bss.os.thread.cb$$Limit                 0x200012e4   Number         0  rtx_lib.o(.bss.os.thread.cb)
    irqRtxLibRef                             0x200014e8   Data           4  rtx_lib.o(.data)
    uwTick                                   0x200014f0   Data           4  stm32f4xx_hal.o(.data)
    uwTickPrio                               0x200014f4   Data           4  stm32f4xx_hal.o(.data)
    uwTickFreq                               0x200014f8   Data           1  stm32f4xx_hal.o(.data)
    SystemCoreClock                          0x200014fc   Data           4  system_stm32f4xx.o(.data)
    osRtxInfo                                0x20001500   Data         164  rtx_kernel.o(.data.os)
    array_acq                                0x200015a4   Data          20  acq_cycle.o(.bss)
    array_dispatcher                         0x200015b8   Data          20  dispatcher_cycle.o(.bss)
    array_histories                          0x200015cc   Data          20  histories.o(.bss)
    array_gateway                            0x200015e0   Data          20  modbus_gateway.o(.bss)
    array_socket                             0x200015f4   Data          20  modbus_socket.o(.bss)
    array_USB                                0x20001608   Data          20  modbus_usb.o(.bss)
    __libspace_start                         0x20001714   Data          96  libspace.o(.bss)
    __temporary_stack_top$libspace           0x20001774   Data           0  libspace.o(.bss)



==============================================================================

Memory Map of the image

  Image Entry point : 0x0800085d

  Load Region LR_1 (Base: 0x08000000, Size: 0x00006e00, Max: 0xffffffff, ABSOLUTE, COMPRESSED[0x0000589c])

    Execution Region ER_RO (Exec base: 0x08000000, Load base: 0x08000000, Size: 0x0000585c, Max: 0xffffffff, ABSOLUTE)

    Exec Addr    Load Addr    Size         Type   Attr      Idx    E Section Name        Object

    0x08000000   0x08000000   0x00000188   Data   RO         4708    RESET               startup_stm32f407xx.o
    0x08000188   0x08000188   0x00000008   Code   RO         4792  * !!!main             c_w.l(__main.o)
    0x08000190   0x08000190   0x00000034   Code   RO         4970    !!!scatter          c_w.l(__scatter.o)
    0x080001c4   0x080001c4   0x0000005a   Code   RO         4968    !!dczerorl2         c_w.l(__dczerorl2.o)
    0x0800021e   0x0800021e   0x00000002   PAD
    0x08000220   0x08000220   0x0000001c   Code   RO         4972    !!handler_zi        c_w.l(__scatter_zi.o)
    0x0800023c   0x0800023c   0x00000000   Code   RO         4783    .ARM.Collect$$_printf_percent$$00000000  c_w.l(_printf_percent.o)
    0x0800023c   0x0800023c   0x00000006   Code   RO         4782    .ARM.Collect$$_printf_percent$$00000014  c_w.l(_printf_s.o)
    0x08000242   0x08000242   0x00000004   Code   RO         4805    .ARM.Collect$$_printf_percent$$00000017  c_w.l(_printf_percent_end.o)
    0x08000246   0x08000246   0x00000002   Code   RO         4838    .ARM.Collect$$libinit$$00000000  c_w.l(libinit.o)
    0x08000248   0x08000248   0x00000004   Code   RO         4850    .ARM.Collect$$libinit$$00000001  c_w.l(libinit2.o)
    0x0800024c   0x0800024c   0x00000000   Code   RO         4853    .ARM.Collect$$libinit$$00000004  c_w.l(libinit2.o)
    0x0800024c   0x0800024c   0x00000000   Code   RO         4856    .ARM.Collect$$libinit$$0000000A  c_w.l(libinit2.o)
    0x0800024c   0x0800024c   0x00000000   Code   RO         4858    .ARM.Collect$$libinit$$0000000C  c_w.l(libinit2.o)
    0x0800024c   0x0800024c   0x00000000   Code   RO         4860    .ARM.Collect$$libinit$$0000000E  c_w.l(libinit2.o)
    0x0800024c   0x0800024c   0x00000000   Code   RO         4863    .ARM.Collect$$libinit$$00000011  c_w.l(libinit2.o)
    0x0800024c   0x0800024c   0x00000000   Code   RO         4865    .ARM.Collect$$libinit$$00000013  c_w.l(libinit2.o)
    0x0800024c   0x0800024c   0x00000000   Code   RO         4867    .ARM.Collect$$libinit$$00000015  c_w.l(libinit2.o)
    0x0800024c   0x0800024c   0x00000000   Code   RO         4869    .ARM.Collect$$libinit$$00000017  c_w.l(libinit2.o)
    0x0800024c   0x0800024c   0x00000000   Code   RO         4871    .ARM.Collect$$libinit$$00000019  c_w.l(libinit2.o)
    0x0800024c   0x0800024c   0x00000000   Code   RO         4873    .ARM.Collect$$libinit$$0000001B  c_w.l(libinit2.o)
    0x0800024c   0x0800024c   0x00000000   Code   RO         4875    .ARM.Collect$$libinit$$0000001D  c_w.l(libinit2.o)
    0x0800024c   0x0800024c   0x00000000   Code   RO         4877    .ARM.Collect$$libinit$$0000001F  c_w.l(libinit2.o)
    0x0800024c   0x0800024c   0x00000000   Code   RO         4879    .ARM.Collect$$libinit$$00000021  c_w.l(libinit2.o)
    0x0800024c   0x0800024c   0x00000000   Code   RO         4881    .ARM.Collect$$libinit$$00000023  c_w.l(libinit2.o)
    0x0800024c   0x0800024c   0x00000000   Code   RO         4883    .ARM.Collect$$libinit$$00000025  c_w.l(libinit2.o)
    0x0800024c   0x0800024c   0x00000000   Code   RO         4887    .ARM.Collect$$libinit$$0000002C  c_w.l(libinit2.o)
    0x0800024c   0x0800024c   0x00000000   Code   RO         4889    .ARM.Collect$$libinit$$0000002E  c_w.l(libinit2.o)
    0x0800024c   0x0800024c   0x00000000   Code   RO         4891    .ARM.Collect$$libinit$$00000030  c_w.l(libinit2.o)
    0x0800024c   0x0800024c   0x00000000   Code   RO         4893    .ARM.Collect$$libinit$$00000032  c_w.l(libinit2.o)
    0x0800024c   0x0800024c   0x00000002   Code   RO         4894    .ARM.Collect$$libinit$$00000033  c_w.l(libinit2.o)
    0x0800024e   0x0800024e   0x00000002   Code   RO         4925    .ARM.Collect$$libshutdown$$00000000  c_w.l(libshutdown.o)
    0x08000250   0x08000250   0x00000000   Code   RO         4951    .ARM.Collect$$libshutdown$$00000002  c_w.l(libshutdown2.o)
    0x08000250   0x08000250   0x00000000   Code   RO         4953    .ARM.Collect$$libshutdown$$00000004  c_w.l(libshutdown2.o)
    0x08000250   0x08000250   0x00000000   Code   RO         4956    .ARM.Collect$$libshutdown$$00000007  c_w.l(libshutdown2.o)
    0x08000250   0x08000250   0x00000000   Code   RO         4959    .ARM.Collect$$libshutdown$$0000000A  c_w.l(libshutdown2.o)
    0x08000250   0x08000250   0x00000000   Code   RO         4961    .ARM.Collect$$libshutdown$$0000000C  c_w.l(libshutdown2.o)
    0x08000250   0x08000250   0x00000000   Code   RO         4964    .ARM.Collect$$libshutdown$$0000000F  c_w.l(libshutdown2.o)
    0x08000250   0x08000250   0x00000002   Code   RO         4965    .ARM.Collect$$libshutdown$$00000010  c_w.l(libshutdown2.o)
    0x08000252   0x08000252   0x00000000   Code   RO         4794    .ARM.Collect$$rtentry$$00000000  c_w.l(__rtentry.o)
    0x08000252   0x08000252   0x00000000   Code   RO         4809    .ARM.Collect$$rtentry$$00000002  c_w.l(__rtentry2.o)
    0x08000252   0x08000252   0x00000006   Code   RO         4821    .ARM.Collect$$rtentry$$00000004  c_w.l(__rtentry4.o)
    0x08000258   0x08000258   0x00000008   Code   RO         4810    .ARM.Collect$$rtentry$$00000008  c_w.l(__rtentry2.o)
    0x08000260   0x08000260   0x00000004   Code   RO         4812    .ARM.Collect$$rtentry$$0000000A  c_w.l(__rtentry2.o)
    0x08000264   0x08000264   0x00000000   Code   RO         4814    .ARM.Collect$$rtentry$$0000000C  c_w.l(__rtentry2.o)
    0x08000264   0x08000264   0x00000008   Code   RO         4815    .ARM.Collect$$rtentry$$0000000D  c_w.l(__rtentry2.o)
    0x0800026c   0x0800026c   0x00000002   Code   RO         4842    .ARM.Collect$$rtexit$$00000000  c_w.l(rtexit.o)
    0x0800026e   0x0800026e   0x00000000   Code   RO         4898    .ARM.Collect$$rtexit$$00000002  c_w.l(rtexit2.o)
    0x0800026e   0x0800026e   0x00000004   Code   RO         4899    .ARM.Collect$$rtexit$$00000003  c_w.l(rtexit2.o)
    0x08000272   0x08000272   0x00000006   Code   RO         4900    .ARM.Collect$$rtexit$$00000004  c_w.l(rtexit2.o)
    0x08000278   0x08000278   0x00000148   Code   RO         2047    .emb_text           rtx_mempool.o
    0x080003c0   0x080003c0   0x00000148   Code   RO         2209    .emb_text           rtx_msgqueue.o
    0x08000508   0x08000508   0x00000148   Code   RO         2615    .emb_text           rtx_system.o
    0x08000650   0x08000650   0x00000148   Code   RO         2671    .emb_text           rtx_thread.o
    0x08000798   0x08000798   0x000000c4   Code   RO          406    .text               irq_cm4f.o
    0x0800085c   0x0800085c   0x00000040   Code   RO         4709  * .text               startup_stm32f407xx.o
    0x0800089c   0x0800089c   0x00000028   Code   RO         4756    .text               c_w.l(noretval__2sprintf.o)
    0x080008c4   0x080008c4   0x00000068   Code   RO         4758    .text               c_w.l(__printf.o)
    0x0800092c   0x0800092c   0x00000052   Code   RO         4760    .text               c_w.l(_printf_str.o)
    0x0800097e   0x0800097e   0x0000008a   Code   RO         4784    .text               c_w.l(rt_memcpy_v6.o)
    0x08000a08   0x08000a08   0x00000044   Code   RO         4786    .text               c_w.l(rt_memclr.o)
    0x08000a4c   0x08000a4c   0x0000004e   Code   RO         4788    .text               c_w.l(rt_memclr_w.o)
    0x08000a9a   0x08000a9a   0x00000006   Code   RO         4790    .text               c_w.l(heapauxi.o)
    0x08000aa0   0x08000aa0   0x00000030   Code   RO         4799    .text               c_w.l(_printf_char_common.o)
    0x08000ad0   0x08000ad0   0x0000000a   Code   RO         4801    .text               c_w.l(_sputc.o)
    0x08000ada   0x08000ada   0x0000002c   Code   RO         4803    .text               c_w.l(_printf_char.o)
    0x08000b06   0x08000b06   0x00000064   Code   RO         4806    .text               c_w.l(rt_memcpy_w.o)
    0x08000b6a   0x08000b6a   0x0000004a   Code   RO         4827    .text               c_w.l(sys_stackheap_outer.o)
    0x08000bb4   0x08000bb4   0x00000012   Code   RO         4829    .text               c_w.l(exit.o)
    0x08000bc6   0x08000bc6   0x00000002   PAD
    0x08000bc8   0x08000bc8   0x00000008   Code   RO         4839    .text               c_w.l(libspace.o)
    0x08000bd0   0x08000bd0   0x0000000c   Code   RO         4895    .text               c_w.l(sys_exit.o)
    0x08000bdc   0x08000bdc   0x00000002   Code   RO         4914    .text               c_w.l(use_no_semi.o)
    0x08000bde   0x08000bde   0x00000000   Code   RO         4916    .text               c_w.l(indicate_semi.o)
    0x08000bde   0x08000bde   0x00000002   PAD
    0x08000be0   0x08000be0   0x00000014   Code   RO         3289    i.DMA2_Stream2_IRQHandler  usart_stm32f4xx.o
    0x08000bf4   0x08000bf4   0x00000014   Code   RO         3290    i.DMA2_Stream7_IRQHandler  usart_stm32f4xx.o
    0x08000c08   0x08000c08   0x00000034   Code   RO         3900    i.DMA_CalcBaseAndBitshift  stm32f4xx_hal_dma.o
    0x08000c3c   0x08000c3c   0x000000aa   Code   RO         3901    i.DMA_CheckFifoParam  stm32f4xx_hal_dma.o
    0x08000ce6   0x08000ce6   0x0000002c   Code   RO         3902    i.DMA_SetConfig     stm32f4xx_hal_dma.o
    0x08000d12   0x08000d12   0x00000002   PAD
    0x08000d14   0x08000d14   0x00000184   Code   RO         3291    i.Enable_GPIO_Clock  usart_stm32f4xx.o
    0x08000e98   0x08000e98   0x00000002   Code   RO          652    i.EvrRtxDelayCompleted  rtx_evr.o
    0x08000e9a   0x08000e9a   0x00000002   Code   RO          672    i.EvrRtxEventFlagsWaitTimeout  rtx_evr.o
    0x08000e9c   0x08000e9c   0x00000002   Code   RO          673    i.EvrRtxKernelError  rtx_evr.o
    0x08000e9e   0x08000e9e   0x00000002   Code   RO          675    i.EvrRtxKernelGetState  rtx_evr.o
    0x08000ea0   0x08000ea0   0x00000002   Code   RO          681    i.EvrRtxKernelInitialize  rtx_evr.o
    0x08000ea2   0x08000ea2   0x00000002   Code   RO          682    i.EvrRtxKernelInitialized  rtx_evr.o
    0x08000ea4   0x08000ea4   0x00000002   Code   RO          689    i.EvrRtxKernelStart  rtx_evr.o
    0x08000ea6   0x08000ea6   0x00000002   Code   RO          690    i.EvrRtxKernelStarted  rtx_evr.o
    0x08000ea8   0x08000ea8   0x00000002   Code   RO          695    i.EvrRtxMemoryAlloc  rtx_evr.o
    0x08000eaa   0x08000eaa   0x00000002   Code   RO          696    i.EvrRtxMemoryBlockAlloc  rtx_evr.o
    0x08000eac   0x08000eac   0x00000002   Code   RO          697    i.EvrRtxMemoryBlockFree  rtx_evr.o
    0x08000eae   0x08000eae   0x00000002   Code   RO          698    i.EvrRtxMemoryBlockInit  rtx_evr.o
    0x08000eb0   0x08000eb0   0x00000002   Code   RO          699    i.EvrRtxMemoryFree  rtx_evr.o
    0x08000eb2   0x08000eb2   0x00000002   Code   RO          700    i.EvrRtxMemoryInit  rtx_evr.o
    0x08000eb4   0x08000eb4   0x00000002   Code   RO          704    i.EvrRtxMemoryPoolAllocTimeout  rtx_evr.o
    0x08000eb6   0x08000eb6   0x00000002   Code   RO          719    i.EvrRtxMessageQueueCreated  rtx_evr.o
    0x08000eb8   0x08000eb8   0x00000002   Code   RO          722    i.EvrRtxMessageQueueError  rtx_evr.o
    0x08000eba   0x08000eba   0x00000002   Code   RO          723    i.EvrRtxMessageQueueGet  rtx_evr.o
    0x08000ebc   0x08000ebc   0x00000002   Code   RO          728    i.EvrRtxMessageQueueGetPending  rtx_evr.o
    0x08000ebe   0x08000ebe   0x00000002   Code   RO          730    i.EvrRtxMessageQueueGetTimeout  rtx_evr.o
    0x08000ec0   0x08000ec0   0x00000002   Code   RO          731    i.EvrRtxMessageQueueInsertPending  rtx_evr.o
    0x08000ec2   0x08000ec2   0x00000002   Code   RO          732    i.EvrRtxMessageQueueInserted  rtx_evr.o
    0x08000ec4   0x08000ec4   0x00000002   Code   RO          733    i.EvrRtxMessageQueueNew  rtx_evr.o
    0x08000ec6   0x08000ec6   0x00000002   Code   RO          734    i.EvrRtxMessageQueueNotInserted  rtx_evr.o
    0x08000ec8   0x08000ec8   0x00000002   Code   RO          735    i.EvrRtxMessageQueueNotRetrieved  rtx_evr.o
    0x08000eca   0x08000eca   0x00000002   Code   RO          736    i.EvrRtxMessageQueuePut  rtx_evr.o
    0x08000ecc   0x08000ecc   0x00000002   Code   RO          737    i.EvrRtxMessageQueuePutPending  rtx_evr.o
    0x08000ece   0x08000ece   0x00000002   Code   RO          738    i.EvrRtxMessageQueuePutTimeout  rtx_evr.o
    0x08000ed0   0x08000ed0   0x00000002   Code   RO          741    i.EvrRtxMessageQueueRetrieved  rtx_evr.o
    0x08000ed2   0x08000ed2   0x00000002   Code   RO          742    i.EvrRtxMutexAcquire  rtx_evr.o
    0x08000ed4   0x08000ed4   0x00000002   Code   RO          743    i.EvrRtxMutexAcquirePending  rtx_evr.o
    0x08000ed6   0x08000ed6   0x00000002   Code   RO          744    i.EvrRtxMutexAcquireTimeout  rtx_evr.o
    0x08000ed8   0x08000ed8   0x00000002   Code   RO          745    i.EvrRtxMutexAcquired  rtx_evr.o
    0x08000eda   0x08000eda   0x00000002   Code   RO          746    i.EvrRtxMutexCreated  rtx_evr.o
    0x08000edc   0x08000edc   0x00000002   Code   RO          747    i.EvrRtxMutexDelete  rtx_evr.o
    0x08000ede   0x08000ede   0x00000002   Code   RO          748    i.EvrRtxMutexDestroyed  rtx_evr.o
    0x08000ee0   0x08000ee0   0x00000002   Code   RO          749    i.EvrRtxMutexError  rtx_evr.o
    0x08000ee2   0x08000ee2   0x00000002   Code   RO          752    i.EvrRtxMutexNew    rtx_evr.o
    0x08000ee4   0x08000ee4   0x00000002   Code   RO          753    i.EvrRtxMutexNotAcquired  rtx_evr.o
    0x08000ee6   0x08000ee6   0x00000002   Code   RO          754    i.EvrRtxMutexRelease  rtx_evr.o
    0x08000ee8   0x08000ee8   0x00000002   Code   RO          755    i.EvrRtxMutexReleased  rtx_evr.o
    0x08000eea   0x08000eea   0x00000002   Code   RO          758    i.EvrRtxSemaphoreAcquireTimeout  rtx_evr.o
    0x08000eec   0x08000eec   0x00000002   Code   RO          770    i.EvrRtxThreadBlocked  rtx_evr.o
    0x08000eee   0x08000eee   0x00000002   Code   RO          771    i.EvrRtxThreadCreated  rtx_evr.o
    0x08000ef0   0x08000ef0   0x00000002   Code   RO          772    i.EvrRtxThreadDestroyed  rtx_evr.o
    0x08000ef2   0x08000ef2   0x00000002   Code   RO          776    i.EvrRtxThreadError  rtx_evr.o
    0x08000ef4   0x08000ef4   0x00000002   Code   RO          777    i.EvrRtxThreadExit  rtx_evr.o
    0x08000ef6   0x08000ef6   0x00000002   Code   RO          785    i.EvrRtxThreadFlagsWaitCompleted  rtx_evr.o
    0x08000ef8   0x08000ef8   0x00000002   Code   RO          788    i.EvrRtxThreadFlagsWaitTimeout  rtx_evr.o
    0x08000efa   0x08000efa   0x00000002   Code   RO          798    i.EvrRtxThreadJoined  rtx_evr.o
    0x08000efc   0x08000efc   0x00000002   Code   RO          799    i.EvrRtxThreadNew   rtx_evr.o
    0x08000efe   0x08000efe   0x00000002   Code   RO          800    i.EvrRtxThreadPreempted  rtx_evr.o
    0x08000f00   0x08000f00   0x00000002   Code   RO          807    i.EvrRtxThreadSwitched  rtx_evr.o
    0x08000f02   0x08000f02   0x00000002   Code   RO          808    i.EvrRtxThreadTerminate  rtx_evr.o
    0x08000f04   0x08000f04   0x00000002   Code   RO          809    i.EvrRtxThreadUnblocked  rtx_evr.o
    0x08000f06   0x08000f06   0x00000002   Code   RO          811    i.EvrRtxTimerCallback  rtx_evr.o
    0x08000f08   0x08000f08   0x000000aa   Code   RO         3903    i.HAL_DMA_Abort     stm32f4xx_hal_dma.o
    0x08000fb2   0x08000fb2   0x00000070   Code   RO         3905    i.HAL_DMA_DeInit    stm32f4xx_hal_dma.o
    0x08001022   0x08001022   0x00000002   PAD
    0x08001024   0x08001024   0x00000240   Code   RO         3908    i.HAL_DMA_IRQHandler  stm32f4xx_hal_dma.o
    0x08001264   0x08001264   0x000000ec   Code   RO         3909    i.HAL_DMA_Init      stm32f4xx_hal_dma.o
    0x08001350   0x08001350   0x0000009e   Code   RO         3913    i.HAL_DMA_Start_IT  stm32f4xx_hal_dma.o
    0x080013ee   0x080013ee   0x00000002   PAD
    0x080013f0   0x080013f0   0x00000164   Code   RO         4047    i.HAL_GPIO_DeInit   stm32f4xx_hal_gpio.o
    0x08001554   0x08001554   0x00000200   Code   RO         4050    i.HAL_GPIO_Init     stm32f4xx_hal_gpio.o
    0x08001754   0x08001754   0x00000010   Code   RO         4052    i.HAL_GPIO_ReadPin  stm32f4xx_hal_gpio.o
    0x08001764   0x08001764   0x0000000c   Code   RO         4054    i.HAL_GPIO_WritePin  stm32f4xx_hal_gpio.o
    0x08001770   0x08001770   0x0000000c   Code   RO         3590    i.HAL_GetTick       stm32f4xx_hal.o
    0x0800177c   0x0800177c   0x00000024   Code   RO         3763    i.HAL_NVIC_ClearPendingIRQ  stm32f4xx_hal_cortex.o
    0x080017a0   0x080017a0   0x00000044   Code   RO         3764    i.HAL_NVIC_DisableIRQ  stm32f4xx_hal_cortex.o
    0x080017e4   0x080017e4   0x0000000c   Code   RO         4293    i.HAL_RCC_GetHCLKFreq  stm32f4xx_hal_rcc.o
    0x080017f0   0x080017f0   0x00000020   Code   RO         4296    i.HAL_RCC_GetPCLK2Freq  stm32f4xx_hal_rcc.o
    0x08001810   0x08001810   0x00000018   Code   RO         1702    i.IsIrqMasked       rtx_kernel.o
    0x08001828   0x08001828   0x00000018   Code   RO         2210    i.IsIrqMasked       rtx_msgqueue.o
    0x08001840   0x08001840   0x00000018   Code   RO         2388    i.IsIrqMasked       rtx_mutex.o
    0x08001858   0x08001858   0x00000018   Code   RO         2672    i.IsIrqMasked       rtx_thread.o
    0x08001870   0x08001870   0x00000010   Code   RO         1703    i.IsIrqMode         rtx_kernel.o
    0x08001880   0x08001880   0x00000010   Code   RO         2211    i.IsIrqMode         rtx_msgqueue.o
    0x08001890   0x08001890   0x00000010   Code   RO         2389    i.IsIrqMode         rtx_mutex.o
    0x080018a0   0x080018a0   0x00000010   Code   RO         2673    i.IsIrqMode         rtx_thread.o
    0x080018b0   0x080018b0   0x00000010   Code   RO         1704    i.IsPrivileged      rtx_kernel.o
    0x080018c0   0x080018c0   0x0000000a   Code   RO         1994    i.MemBlockPtr       rtx_memory.o
    0x080018ca   0x080018ca   0x00000034   Code   RO         2212    i.MessageQueueGet   rtx_msgqueue.o
    0x080018fe   0x080018fe   0x0000004c   Code   RO         2213    i.MessageQueuePut   rtx_msgqueue.o
    0x0800194a   0x0800194a   0x00000022   Code   RO         2214    i.MessageQueueRemove  rtx_msgqueue.o
    0x0800196c   0x0800196c   0x00000008   Code   RO         3215    i.OS_Tick_AcknowledgeIRQ  os_systick.o
    0x08001974   0x08001974   0x00000030   Code   RO         3217    i.OS_Tick_Enable    os_systick.o
    0x080019a4   0x080019a4   0x00000006   Code   RO         3220    i.OS_Tick_GetIRQn   os_systick.o
    0x080019aa   0x080019aa   0x00000002   PAD
    0x080019ac   0x080019ac   0x00000050   Code   RO         3223    i.OS_Tick_Setup     os_systick.o
    0x080019fc   0x080019fc   0x00000064   Code   RO         4717    i.SystemInit        system_stm32f4xx.o
    0x08001a60   0x08001a60   0x00000018   Code   RO           52    i.ThreadCreate_acq_cycle  acq_cycle.o
    0x08001a78   0x08001a78   0x00000018   Code   RO           83    i.ThreadCreate_dispatcher_cycle  dispatcher_cycle.o
    0x08001a90   0x08001a90   0x00000018   Code   RO          111    i.ThreadCreate_histories  histories.o
    0x08001aa8   0x08001aa8   0x00000018   Code   RO          195    i.ThreadCreate_modbus_USB  modbus_usb.o
    0x08001ac0   0x08001ac0   0x00000018   Code   RO          139    i.ThreadCreate_modbus_gateway  modbus_gateway.o
    0x08001ad8   0x08001ad8   0x00000018   Code   RO          167    i.ThreadCreate_modbus_socket  modbus_socket.o
    0x08001af0   0x08001af0   0x00000056   Code   RO         2674    i.ThreadFlagsCheck  rtx_thread.o
    0x08001b46   0x08001b46   0x00000002   PAD
    0x08001b48   0x08001b48   0x00000024   Code   RO           53    i.Thread_acq_cycle  acq_cycle.o
    0x08001b6c   0x08001b6c   0x0000002c   Code   RO           84    i.Thread_dispatcher_cycle  dispatcher_cycle.o
    0x08001b98   0x08001b98   0x00000024   Code   RO          112    i.Thread_histories  histories.o
    0x08001bbc   0x08001bbc   0x00000024   Code   RO          196    i.Thread_modbus_USB  modbus_usb.o
    0x08001be0   0x08001be0   0x00000028   Code   RO          140    i.Thread_modbus_gateway  modbus_gateway.o
    0x08001c08   0x08001c08   0x00000028   Code   RO          168    i.Thread_modbus_socket  modbus_socket.o
    0x08001c30   0x08001c30   0x00000040   Code   RO         3091    i.TimerInsert       rtx_timer.o
    0x08001c70   0x08001c70   0x00000018   Code   RO         3093    i.TimerUnlink       rtx_timer.o
    0x08001c88   0x08001c88   0x00000018   Code   RO         3292    i.USART1_Control    usart_stm32f4xx.o
    0x08001ca0   0x08001ca0   0x00000010   Code   RO         3293    i.USART1_GetCapabilities  usart_stm32f4xx.o
    0x08001cb0   0x08001cb0   0x00000010   Code   RO         3294    i.USART1_GetModemStatus  usart_stm32f4xx.o
    0x08001cc0   0x08001cc0   0x00000010   Code   RO         3295    i.USART1_GetRxCount  usart_stm32f4xx.o
    0x08001cd0   0x08001cd0   0x00000010   Code   RO         3296    i.USART1_GetStatus  usart_stm32f4xx.o
    0x08001ce0   0x08001ce0   0x00000010   Code   RO         3297    i.USART1_GetTxCount  usart_stm32f4xx.o
    0x08001cf0   0x08001cf0   0x00000010   Code   RO         3298    i.USART1_IRQHandler  usart_stm32f4xx.o
    0x08001d00   0x08001d00   0x00000014   Code   RO         3299    i.USART1_Initialize  usart_stm32f4xx.o
    0x08001d14   0x08001d14   0x00000014   Code   RO         3300    i.USART1_PowerControl  usart_stm32f4xx.o
    0x08001d28   0x08001d28   0x00000010   Code   RO         3301    i.USART1_RX_DMA_Complete  usart_stm32f4xx.o
    0x08001d38   0x08001d38   0x00000018   Code   RO         3302    i.USART1_Receive    usart_stm32f4xx.o
    0x08001d50   0x08001d50   0x00000018   Code   RO         3303    i.USART1_Send       usart_stm32f4xx.o
    0x08001d68   0x08001d68   0x00000014   Code   RO         3304    i.USART1_SetModemControl  usart_stm32f4xx.o
    0x08001d7c   0x08001d7c   0x00000010   Code   RO         3305    i.USART1_TX_DMA_Complete  usart_stm32f4xx.o
    0x08001d8c   0x08001d8c   0x0000001c   Code   RO         3306    i.USART1_Transfer   usart_stm32f4xx.o
    0x08001da8   0x08001da8   0x00000010   Code   RO         3307    i.USART1_Uninitialize  usart_stm32f4xx.o
    0x08001db8   0x08001db8   0x000008ec   Code   RO         3308    i.USART_Control     usart_stm32f4xx.o
    0x080026a4   0x080026a4   0x00000006   Code   RO         3309    i.USART_GetCapabilities  usart_stm32f4xx.o
    0x080026aa   0x080026aa   0x0000008c   Code   RO         3310    i.USART_GetModemStatus  usart_stm32f4xx.o
    0x08002736   0x08002736   0x0000001c   Code   RO         3311    i.USART_GetRxCount  usart_stm32f4xx.o
    0x08002752   0x08002752   0x000000d4   Code   RO         3312    i.USART_GetStatus   usart_stm32f4xx.o
    0x08002826   0x08002826   0x0000001c   Code   RO         3313    i.USART_GetTxCount  usart_stm32f4xx.o
    0x08002842   0x08002842   0x00000272   Code   RO         3314    i.USART_IRQHandler  usart_stm32f4xx.o
    0x08002ab4   0x08002ab4   0x000001ec   Code   RO         3315    i.USART_Initialize  usart_stm32f4xx.o
    0x08002ca0   0x08002ca0   0x00000134   Code   RO         3316    i.USART_PeripheralReset  usart_stm32f4xx.o
    0x08002dd4   0x08002dd4   0x00000340   Code   RO         3317    i.USART_PowerControl  usart_stm32f4xx.o
    0x08003114   0x08003114   0x00000084   Code   RO         3318    i.USART_RX_DMA_Complete  usart_stm32f4xx.o
    0x08003198   0x08003198   0x00000146   Code   RO         3319    i.USART_Receive     usart_stm32f4xx.o
    0x080032de   0x080032de   0x00000118   Code   RO         3320    i.USART_Send        usart_stm32f4xx.o
    0x080033f6   0x080033f6   0x0000008c   Code   RO         3321    i.USART_SetModemControl  usart_stm32f4xx.o
    0x08003482   0x08003482   0x0000004c   Code   RO         3322    i.USART_TX_DMA_Complete  usart_stm32f4xx.o
    0x080034ce   0x080034ce   0x0000006a   Code   RO         3323    i.USART_Transfer    usart_stm32f4xx.o
    0x08003538   0x08003538   0x0000006a   Code   RO         3324    i.USART_Uninitialize  usart_stm32f4xx.o
    0x080035a2   0x080035a2   0x00000002   PAD
    0x080035a4   0x080035a4   0x00000010   Code   RO         3325    i.USARTx_GetVersion  usart_stm32f4xx.o
    0x080035b4   0x080035b4   0x0000001c   Code   RO         3326    i.__NVIC_ClearPendingIRQ  usart_stm32f4xx.o
    0x080035d0   0x080035d0   0x00000022   Code   RO         3327    i.__NVIC_EnableIRQ  usart_stm32f4xx.o
    0x080035f2   0x080035f2   0x00000016   Code   RO         1919    i._mutex_acquire    rtx_lib.o
    0x08003608   0x08003608   0x0000000c   Code   RO         1920    i._mutex_free       rtx_lib.o
    0x08003614   0x08003614   0x00000022   Code   RO         1921    i._mutex_initialize  rtx_lib.o
    0x08003636   0x08003636   0x00000012   Code   RO         1922    i._mutex_release    rtx_lib.o
    0x08003648   0x08003648   0x00000008   Code   RO         1923    i._platform_post_stackheap_init  rtx_lib.o
    0x08003650   0x08003650   0x00000082   Code   RO         2215    i.isrRtxMessageQueueGet  rtx_msgqueue.o
    0x080036d2   0x080036d2   0x00000086   Code   RO         2216    i.isrRtxMessageQueuePut  rtx_msgqueue.o
    0x08003758   0x08003758   0x00000034   Code   RO         2616    i.isr_queue_get     rtx_system.o
    0x0800378c   0x0800378c   0x0000003c   Code   RO         2617    i.isr_queue_put     rtx_system.o
    0x080037c8   0x080037c8   0x00000026   Code   RO            1    i.main              main.o
    0x080037ee   0x080037ee   0x00000002   PAD
    0x080037f0   0x080037f0   0x00000030   Code   RO         1708    i.osKernelGetState  rtx_kernel.o
    0x08003820   0x08003820   0x00000038   Code   RO         1713    i.osKernelInitialize  rtx_kernel.o
    0x08003858   0x08003858   0x00000034   Code   RO         1717    i.osKernelStart     rtx_kernel.o
    0x0800388c   0x0800388c   0x00000054   Code   RO         2218    i.osMessageQueueGet  rtx_msgqueue.o
    0x080038e0   0x080038e0   0x0000004c   Code   RO         2224    i.osMessageQueueNew  rtx_msgqueue.o
    0x0800392c   0x0800392c   0x00000054   Code   RO         2225    i.osMessageQueuePut  rtx_msgqueue.o
    0x08003980   0x08003980   0x00000044   Code   RO         2390    i.osMutexAcquire    rtx_mutex.o
    0x080039c4   0x080039c4   0x0000003c   Code   RO         2391    i.osMutexDelete     rtx_mutex.o
    0x08003a00   0x08003a00   0x0000003c   Code   RO         2394    i.osMutexNew        rtx_mutex.o
    0x08003a3c   0x08003a3c   0x0000003c   Code   RO         2395    i.osMutexRelease    rtx_mutex.o
    0x08003a78   0x08003a78   0x00000020   Code   RO          226    i.osRtxErrorNotify  rtx_config.o
    0x08003a98   0x08003a98   0x00000004   Code   RO          227    i.osRtxIdleThread   rtx_config.o
    0x08003a9c   0x08003a9c   0x0000000c   Code   RO         2678    i.osRtxKernelGetState  rtx_thread.o
    0x08003aa8   0x08003aa8   0x00000002   Code   RO         1720    i.osRtxKernelPreInit  rtx_kernel.o
    0x08003aaa   0x08003aaa   0x000000ee   Code   RO         1995    i.osRtxMemoryAlloc  rtx_memory.o
    0x08003b98   0x08003b98   0x0000007c   Code   RO         1996    i.osRtxMemoryFree   rtx_memory.o
    0x08003c14   0x08003c14   0x0000006a   Code   RO         1997    i.osRtxMemoryInit   rtx_memory.o
    0x08003c7e   0x08003c7e   0x00000030   Code   RO         2060    i.osRtxMemoryPoolAlloc  rtx_mempool.o
    0x08003cae   0x08003cae   0x00000044   Code   RO         2061    i.osRtxMemoryPoolFree  rtx_mempool.o
    0x08003cf2   0x08003cf2   0x00000058   Code   RO         2062    i.osRtxMemoryPoolInit  rtx_mempool.o
    0x08003d4a   0x08003d4a   0x00000108   Code   RO         2227    i.osRtxMessageQueuePostProcess  rtx_msgqueue.o
    0x08003e52   0x08003e52   0x00000066   Code   RO         2396    i.osRtxMutexOwnerRelease  rtx_mutex.o
    0x08003eb8   0x08003eb8   0x00000088   Code   RO         2618    i.osRtxPendSV_Handler  rtx_system.o
    0x08003f40   0x08003f40   0x0000003c   Code   RO         2619    i.osRtxPostProcess  rtx_system.o
    0x08003f7c   0x08003f7c   0x00000040   Code   RO         2679    i.osRtxThreadBlock  rtx_thread.o
    0x08003fbc   0x08003fbc   0x00000068   Code   RO         2680    i.osRtxThreadDelayInsert  rtx_thread.o
    0x08004024   0x08004024   0x0000005c   Code   RO         2681    i.osRtxThreadDelayRemove  rtx_thread.o
    0x08004080   0x08004080   0x000000e0   Code   RO         2682    i.osRtxThreadDelayTick  rtx_thread.o
    0x08004160   0x08004160   0x0000006c   Code   RO         2683    i.osRtxThreadDispatch  rtx_thread.o
    0x080041cc   0x080041cc   0x00000064   Code   RO         2684    i.osRtxThreadFree   rtx_thread.o
    0x08004230   0x08004230   0x0000000c   Code   RO         2685    i.osRtxThreadGetRunning  rtx_thread.o
    0x0800423c   0x0800423c   0x0000001a   Code   RO         2686    i.osRtxThreadListGet  rtx_thread.o
    0x08004256   0x08004256   0x0000002c   Code   RO         2687    i.osRtxThreadListPut  rtx_thread.o
    0x08004282   0x08004282   0x0000001a   Code   RO         2688    i.osRtxThreadListRemove  rtx_thread.o
    0x0800429c   0x0800429c   0x00000010   Code   RO         2689    i.osRtxThreadListRoot  rtx_thread.o
    0x080042ac   0x080042ac   0x0000002a   Code   RO         2690    i.osRtxThreadListSort  rtx_thread.o
    0x080042d6   0x080042d6   0x00000034   Code   RO         2692    i.osRtxThreadPostProcess  rtx_thread.o
    0x0800430a   0x0800430a   0x00000002   PAD
    0x0800430c   0x0800430c   0x00000018   Code   RO         2693    i.osRtxThreadReadyPut  rtx_thread.o
    0x08004324   0x08004324   0x00000018   Code   RO         2694    i.osRtxThreadRegPtr  rtx_thread.o
    0x0800433c   0x0800433c   0x0000000c   Code   RO         2695    i.osRtxThreadSetRunning  rtx_thread.o
    0x08004348   0x08004348   0x0000002c   Code   RO         2696    i.osRtxThreadStackCheck  rtx_thread.o
    0x08004374   0x08004374   0x0000004c   Code   RO         2697    i.osRtxThreadStartup  rtx_thread.o
    0x080043c0   0x080043c0   0x0000001c   Code   RO         2698    i.osRtxThreadSwitch  rtx_thread.o
    0x080043dc   0x080043dc   0x0000004c   Code   RO         2699    i.osRtxThreadWaitEnter  rtx_thread.o
    0x08004428   0x08004428   0x00000036   Code   RO         2700    i.osRtxThreadWaitExit  rtx_thread.o
    0x0800445e   0x0800445e   0x00000002   PAD
    0x08004460   0x08004460   0x000000a0   Code   RO         2620    i.osRtxTick_Handler  rtx_system.o
    0x08004500   0x08004500   0x00000050   Code   RO         3094    i.osRtxTimerThread  rtx_timer.o
    0x08004550   0x08004550   0x0000005c   Code   RO         3095    i.osRtxTimerTick    rtx_timer.o
    0x080045ac   0x080045ac   0x00000018   Code   RO          286    i.osThreadCreate    cmsis_os1.o
    0x080045c4   0x080045c4   0x00000020   Code   RO         2703    i.osThreadExit      rtx_thread.o
    0x080045e4   0x080045e4   0x0000004c   Code   RO         2716    i.osThreadNew       rtx_thread.o
    0x08004630   0x08004630   0x0000003c   Code   RO         2720    i.osThreadTerminate  rtx_thread.o
    0x0800466c   0x0800466c   0x00000020   Code   RO         1924    i.os_kernel_is_active  rtx_lib.o
    0x0800468c   0x0800468c   0x00000018   Code   RO         1722    i.svcRtxKernelGetState  rtx_kernel.o
    0x080046a4   0x080046a4   0x00000224   Code   RO         1727    i.svcRtxKernelInitialize  rtx_kernel.o
    0x080048c8   0x080048c8   0x000000d8   Code   RO         1731    i.svcRtxKernelStart  rtx_kernel.o
    0x080049a0   0x080049a0   0x00000138   Code   RO         2229    i.svcRtxMessageQueueGet  rtx_msgqueue.o
    0x08004ad8   0x08004ad8   0x00000194   Code   RO         2235    i.svcRtxMessageQueueNew  rtx_msgqueue.o
    0x08004c6c   0x08004c6c   0x00000128   Code   RO         2236    i.svcRtxMessageQueuePut  rtx_msgqueue.o
    0x08004d94   0x08004d94   0x0000010c   Code   RO         2397    i.svcRtxMutexAcquire  rtx_mutex.o
    0x08004ea0   0x08004ea0   0x000000e4   Code   RO         2398    i.svcRtxMutexDelete  rtx_mutex.o
    0x08004f84   0x08004f84   0x000000ac   Code   RO         2401    i.svcRtxMutexNew    rtx_mutex.o
    0x08005030   0x08005030   0x00000110   Code   RO         2402    i.svcRtxMutexRelease  rtx_mutex.o
    0x08005140   0x08005140   0x0000008c   Code   RO         2724    i.svcRtxThreadExit  rtx_thread.o
    0x080051cc   0x080051cc   0x00000278   Code   RO         2737    i.svcRtxThreadNew   rtx_thread.o
    0x08005444   0x08005444   0x00000110   Code   RO         2741    i.svcRtxThreadTerminate  rtx_thread.o
    0x08005554   0x08005554   0x0000000a   Code   RO         4910    x$fpl$fpinit        fz_wm.l(fpinit.o)
    0x0800555e   0x0800555e   0x00000002   PAD
    0x08005560   0x08005560   0x00000028   Data   RO           57    .constdata          acq_cycle.o
    0x08005588   0x08005588   0x00000028   Data   RO           88    .constdata          dispatcher_cycle.o
    0x080055b0   0x080055b0   0x00000028   Data   RO          116    .constdata          histories.o
    0x080055d8   0x080055d8   0x00000028   Data   RO          144    .constdata          modbus_gateway.o
    0x08005600   0x08005600   0x00000028   Data   RO          172    .constdata          modbus_socket.o
    0x08005628   0x08005628   0x00000028   Data   RO          200    .constdata          modbus_usb.o
    0x08005650   0x08005650   0x00000001   Data   RO          405    .constdata          irq_cm4f.o
    0x08005651   0x08005651   0x00000003   PAD
    0x08005654   0x08005654   0x00000064   Data   RO         1931    .constdata          rtx_lib.o
    0x080056b8   0x080056b8   0x000000b8   Data   RO         3329    .constdata          usart_stm32f4xx.o
    0x08005770   0x08005770   0x00000008   Data   RO         3915    .constdata          stm32f4xx_hal_dma.o
    0x08005778   0x08005778   0x00000018   Data   RO         4718    .constdata          system_stm32f4xx.o
    0x08005790   0x08005790   0x0000000b   Data   RO         1734    .conststrlit        rtx_kernel.o
    0x0800579b   0x0800579b   0x00000001   PAD
    0x0800579c   0x0800579c   0x000000a0   Data   RO         1933    .rodata             rtx_lib.o
    0x0800583c   0x0800583c   0x00000020   Data   RO         4966    Region$$Table       anon$$obj.o


    Execution Region ER_RW (Exec base: 0x20000000, Load base: 0x0800585c, Size: 0x000015a4, Max: 0xffffffff, ABSOLUTE, COMPRESSED[0x00000040])

    Exec Addr    Load Addr    Size         Type   Attr      Idx    E Section Name        Object

    0x20000000   COMPRESSED   0x00001040   Data   RW         1925    .bss.os             rtx_lib.o
    0x20001040   COMPRESSED   0x00000034   Data   RW         1927    .bss.os.msgqueue.cb  rtx_lib.o
    0x20001074   COMPRESSED   0x00000050   Data   RW         1928    .bss.os.msgqueue.mem  rtx_lib.o
    0x200010c4   COMPRESSED   0x00000044   Data   RW           55    .bss.os.thread.cb   acq_cycle.o
    0x20001108   COMPRESSED   0x00000044   Data   RW           86    .bss.os.thread.cb   dispatcher_cycle.o
    0x2000114c   COMPRESSED   0x00000044   Data   RW          114    .bss.os.thread.cb   histories.o
    0x20001190   COMPRESSED   0x00000044   Data   RW          142    .bss.os.thread.cb   modbus_gateway.o
    0x200011d4   COMPRESSED   0x00000044   Data   RW          170    .bss.os.thread.cb   modbus_socket.o
    0x20001218   COMPRESSED   0x00000044   Data   RW          198    .bss.os.thread.cb   modbus_usb.o
    0x2000125c   COMPRESSED   0x00000088   Data   RW         1929    .bss.os.thread.cb   rtx_lib.o
    0x200012e4   COMPRESSED   0x00000004   PAD
    0x200012e8   COMPRESSED   0x00000200   Data   RW         1930    .bss.os.thread.stack  rtx_lib.o
    0x200014e8   COMPRESSED   0x00000005   Data   RW         1932    .data               rtx_lib.o
    0x200014ed   COMPRESSED   0x00000001   Data   RW         3224    .data               os_systick.o
    0x200014ee   COMPRESSED   0x00000002   PAD
    0x200014f0   COMPRESSED   0x00000009   Data   RW         3604    .data               stm32f4xx_hal.o
    0x200014f9   COMPRESSED   0x00000003   PAD
    0x200014fc   COMPRESSED   0x00000004   Data   RW         4719    .data               system_stm32f4xx.o
    0x20001500   COMPRESSED   0x000000a4   Data   RW         1735    .data.os            rtx_kernel.o


    Execution Region ER_ZI (Exec base: 0x200015a4, Load base: 0x0800589c, Size: 0x000007d4, Max: 0xffffffff, ABSOLUTE)

    Exec Addr    Load Addr    Size         Type   Attr      Idx    E Section Name        Object

    0x200015a4        -       0x00000014   Zero   RW           54    .bss                acq_cycle.o
    0x200015b8        -       0x00000014   Zero   RW           85    .bss                dispatcher_cycle.o
    0x200015cc        -       0x00000014   Zero   RW          113    .bss                histories.o
    0x200015e0        -       0x00000014   Zero   RW          141    .bss                modbus_gateway.o
    0x200015f4        -       0x00000014   Zero   RW          169    .bss                modbus_socket.o
    0x20001608        -       0x00000014   Zero   RW          197    .bss                modbus_usb.o
    0x2000161c        -       0x000000f8   Zero   RW         3328    .bss                usart_stm32f4xx.o
    0x20001714        -       0x00000060   Zero   RW         4840    .bss                c_w.l(libspace.o)
    0x20001774   0x0800589c   0x00000004   PAD
    0x20001778        -       0x00000200   Zero   RW         4707    HEAP                startup_stm32f407xx.o
    0x20001978        -       0x00000400   Zero   RW         4706    STACK               startup_stm32f407xx.o


==============================================================================

Image component sizes


      Code (inc. data)   RO Data    RW Data    ZI Data      Debug   Object Name

        60         24         40         68         20       2031   acq_cycle.o
        24          0          0          0          0       1541   cmsis_os1.o
        68         32         40         68         20       2155   dispatcher_cycle.o
        60         24         40         68         20       2041   histories.o
       196         12          1          0          0        676   irq_cm4f.o
        38          0          0          0          0      21598   main.o
        64         28         40         68         20       2122   modbus_gateway.o
        64         28         40         68         20       2098   modbus_socket.o
        60         24         40         68         20       2050   modbus_usb.o
       142         24          0          1          0       2680   os_systick.o
        36          6          0          0          0      12072   rtx_config.o
         0          0          0          0          0     567292   rtx_delay.o
       112          0          0          0          0      36053   rtx_evr.o
      1002         42         11        164          0      26026   rtx_kernel.o
       126          4        260       4945          0      13086   rtx_lib.o
       478          0          0          0          0       4535   rtx_memory.o
       532          0          0          0          0       4179   rtx_mempool.o
      2314         34          0          0          0      24936   rtx_msgqueue.o
      1330         36          0          0          0      12868   rtx_mutex.o
       796         42          0          0          0      10397   rtx_system.o
      2926        138          0          0          0      31650   rtx_thread.o
       260         30          0          0          0       3663   rtx_timer.o
        64         26        392          0       1536        872   startup_stm32f407xx.o
        12          6          0          9          0       2521   stm32f4xx_hal.o
       104         12          0          0          0      31780   stm32f4xx_hal_cortex.o
      1518         16          8          0          0       8064   stm32f4xx_hal_dma.o
       896         86          0          0          0       4473   stm32f4xx_hal_gpio.o
        44         16          0          0          0       1309   stm32f4xx_hal_rcc.o
       100         18         24          4          0       1519   system_stm32f4xx.o
      6932        254        184          0        248      96606   usart_stm32f4xx.o

    ----------------------------------------------------------------------
     20376        962       1156       5540       1904     932893   Object Totals
         0          0         32          0          0          0   (incl. Generated)
        18          0          4          9          0          0   (incl. Padding)

    ----------------------------------------------------------------------

      Code (inc. data)   RO Data    RW Data    ZI Data      Debug   Library Member Name

        90          0          0          0          0          0   __dczerorl2.o
         8          0          0          0          0         68   __main.o
       104          0          0          0          0         84   __printf.o
         0          0          0          0          0          0   __rtentry.o
        20          0          0          0          0          0   __rtentry2.o
         6          0          0          0          0          0   __rtentry4.o
        52          8          0          0          0          0   __scatter.o
        28          0          0          0          0          0   __scatter_zi.o
        44          0          0          0          0        108   _printf_char.o
        48          6          0          0          0         96   _printf_char_common.o
         0          0          0          0          0          0   _printf_percent.o
         4          0          0          0          0          0   _printf_percent_end.o
         6          0          0          0          0          0   _printf_s.o
        82          0          0          0          0         80   _printf_str.o
        10          0          0          0          0         68   _sputc.o
        18          0          0          0          0         80   exit.o
         6          0          0          0          0        152   heapauxi.o
         0          0          0          0          0          0   indicate_semi.o
         2          0          0          0          0          0   libinit.o
         6          0          0          0          0          0   libinit2.o
         2          0          0          0          0          0   libshutdown.o
         2          0          0          0          0          0   libshutdown2.o
         8          4          0          0         96         68   libspace.o
        40          6          0          0          0         84   noretval__2sprintf.o
        68          0          0          0          0         68   rt_memclr.o
        78          0          0          0          0         80   rt_memclr_w.o
       138          0          0          0          0         68   rt_memcpy_v6.o
       100          0          0          0          0         80   rt_memcpy_w.o
         2          0          0          0          0          0   rtexit.o
        10          0          0          0          0          0   rtexit2.o
        12          4          0          0          0         68   sys_exit.o
        74          0          0          0          0         80   sys_stackheap_outer.o
         2          0          0          0          0         68   use_no_semi.o
        10          0          0          0          0        116   fpinit.o

    ----------------------------------------------------------------------
      1088         28          0          0        100       1516   Library Totals
         8          0          0          0          4          0   (incl. Padding)

    ----------------------------------------------------------------------

      Code (inc. data)   RO Data    RW Data    ZI Data      Debug   Library Name

      1070         28          0          0         96       1400   c_w.l
        10          0          0          0          0        116   fz_wm.l

    ----------------------------------------------------------------------
      1088         28          0          0        100       1516   Library Totals

    ----------------------------------------------------------------------

==============================================================================


      Code (inc. data)   RO Data    RW Data    ZI Data      Debug   

     21464        990       1156       5540       2004     911633   Grand Totals
     21464        990       1156         64       2004     911633   ELF Image Totals (compressed)
     21464        990       1156         64          0          0   ROM Totals

==============================================================================

    Total RO  Size (Code + RO Data)                22620 (  22.09kB)
    Total RW  Size (RW Data + ZI Data)              7544 (   7.37kB)
    Total ROM Size (Code + RO Data + RW Data)      22684 (  22.15kB)

==============================================================================

